{
  "contractName": "SFactory",
  "abi": [
    {
      "constant": true,
      "inputs": [],
      "name": "MAX_TOTAL_WEIGHT",
      "outputs": [
        {
          "name": "",
          "type": "uint256"
        }
      ],
      "payable": false,
      "stateMutability": "view",
      "type": "function"
    },
    {
      "constant": true,
      "inputs": [],
      "name": "BPOW_PRECISION",
      "outputs": [
        {
          "name": "",
          "type": "uint256"
        }
      ],
      "payable": false,
      "stateMutability": "view",
      "type": "function"
    },
    {
      "constant": true,
      "inputs": [],
      "name": "MIN_WEIGHT",
      "outputs": [
        {
          "name": "",
          "type": "uint256"
        }
      ],
      "payable": false,
      "stateMutability": "view",
      "type": "function"
    },
    {
      "constant": true,
      "inputs": [],
      "name": "MIN_FEE",
      "outputs": [
        {
          "name": "",
          "type": "uint256"
        }
      ],
      "payable": false,
      "stateMutability": "view",
      "type": "function"
    },
    {
      "constant": true,
      "inputs": [
        {
          "name": "str1",
          "type": "string"
        },
        {
          "name": "str2",
          "type": "string"
        }
      ],
      "name": "concatenateStrings",
      "outputs": [
        {
          "name": "",
          "type": "string"
        }
      ],
      "payable": false,
      "stateMutability": "pure",
      "type": "function"
    },
    {
      "constant": true,
      "inputs": [],
      "name": "MIN_BALANCE",
      "outputs": [
        {
          "name": "",
          "type": "uint256"
        }
      ],
      "payable": false,
      "stateMutability": "view",
      "type": "function"
    },
    {
      "constant": true,
      "inputs": [],
      "name": "INIT_POOL_SUPPLY",
      "outputs": [
        {
          "name": "",
          "type": "uint256"
        }
      ],
      "payable": false,
      "stateMutability": "view",
      "type": "function"
    },
    {
      "constant": true,
      "inputs": [],
      "name": "MAX_OUT_RATIO",
      "outputs": [
        {
          "name": "",
          "type": "uint256"
        }
      ],
      "payable": false,
      "stateMutability": "view",
      "type": "function"
    },
    {
      "constant": true,
      "inputs": [],
      "name": "getColor",
      "outputs": [
        {
          "name": "",
          "type": "bytes32"
        }
      ],
      "payable": false,
      "stateMutability": "view",
      "type": "function"
    },
    {
      "constant": true,
      "inputs": [],
      "name": "MAX_BOUND_TOKENS",
      "outputs": [
        {
          "name": "",
          "type": "uint256"
        }
      ],
      "payable": false,
      "stateMutability": "view",
      "type": "function"
    },
    {
      "constant": true,
      "inputs": [],
      "name": "MIN_BOUND_TOKENS",
      "outputs": [
        {
          "name": "",
          "type": "uint256"
        }
      ],
      "payable": false,
      "stateMutability": "view",
      "type": "function"
    },
    {
      "constant": true,
      "inputs": [],
      "name": "MIN_BPOW_BASE",
      "outputs": [
        {
          "name": "",
          "type": "uint256"
        }
      ],
      "payable": false,
      "stateMutability": "view",
      "type": "function"
    },
    {
      "constant": true,
      "inputs": [],
      "name": "MAX_FEE",
      "outputs": [
        {
          "name": "",
          "type": "uint256"
        }
      ],
      "payable": false,
      "stateMutability": "view",
      "type": "function"
    },
    {
      "constant": true,
      "inputs": [],
      "name": "MAX_BPOW_BASE",
      "outputs": [
        {
          "name": "",
          "type": "uint256"
        }
      ],
      "payable": false,
      "stateMutability": "view",
      "type": "function"
    },
    {
      "constant": true,
      "inputs": [],
      "name": "BONE",
      "outputs": [
        {
          "name": "",
          "type": "uint256"
        }
      ],
      "payable": false,
      "stateMutability": "view",
      "type": "function"
    },
    {
      "constant": true,
      "inputs": [],
      "name": "EXIT_FEE",
      "outputs": [
        {
          "name": "",
          "type": "uint256"
        }
      ],
      "payable": false,
      "stateMutability": "view",
      "type": "function"
    },
    {
      "constant": true,
      "inputs": [],
      "name": "MAX_WEIGHT",
      "outputs": [
        {
          "name": "",
          "type": "uint256"
        }
      ],
      "payable": false,
      "stateMutability": "view",
      "type": "function"
    },
    {
      "constant": true,
      "inputs": [
        {
          "name": "value",
          "type": "uint256"
        }
      ],
      "name": "uintToString",
      "outputs": [
        {
          "name": "",
          "type": "string"
        }
      ],
      "payable": false,
      "stateMutability": "pure",
      "type": "function"
    },
    {
      "constant": true,
      "inputs": [],
      "name": "MAX_IN_RATIO",
      "outputs": [
        {
          "name": "",
          "type": "uint256"
        }
      ],
      "payable": false,
      "stateMutability": "view",
      "type": "function"
    },
    {
      "inputs": [
        {
          "name": "spoolTemplate",
          "type": "address"
        }
      ],
      "payable": false,
      "stateMutability": "nonpayable",
      "type": "constructor"
    },
    {
      "anonymous": false,
      "inputs": [
        {
          "indexed": true,
          "name": "newSPoolAddress",
          "type": "address"
        },
        {
          "indexed": true,
          "name": "spoolTemplateAddress",
          "type": "address"
        }
      ],
      "name": "SPoolCreated",
      "type": "event"
    },
    {
      "anonymous": false,
      "inputs": [
        {
          "indexed": false,
          "name": "spoolAddress",
          "type": "address"
        },
        {
          "indexed": true,
          "name": "registeredBy",
          "type": "address"
        },
        {
          "indexed": true,
          "name": "registeredAt",
          "type": "uint256"
        }
      ],
      "name": "SPoolRegistered",
      "type": "event"
    },
    {
      "anonymous": false,
      "inputs": [
        {
          "indexed": false,
          "name": "instance",
          "type": "address"
        }
      ],
      "name": "InstanceDeployed",
      "type": "event"
    },
    {
      "constant": false,
      "inputs": [
        {
          "name": "controller",
          "type": "address"
        }
      ],
      "name": "newSPool",
      "outputs": [
        {
          "name": "spool",
          "type": "address"
        }
      ],
      "payable": false,
      "stateMutability": "nonpayable",
      "type": "function"
    },
    {
      "constant": true,
      "inputs": [],
      "name": "getSPool",
      "outputs": [
        {
          "name": "",
          "type": "address"
        }
      ],
      "payable": false,
      "stateMutability": "view",
      "type": "function"
    }
  ],
  "bytecode": "0x608060405234801561001057600080fd5b5060405160208061106c8339810180604052602081101561003057600080fd5b8101908080519060200190929190505050600073ffffffffffffffffffffffffffffffffffffffff168173ffffffffffffffffffffffffffffffffffffffff1614156100e4576040517f08c379a000000000000000000000000000000000000000000000000000000000815260040180806020018281038252600d8152602001807f4552525f414444524553535f300000000000000000000000000000000000000081525060200191505060405180910390fd5b806000806101000a81548173ffffffffffffffffffffffffffffffffffffffff021916908373ffffffffffffffffffffffffffffffffffffffff16021790555050610f38806101346000396000f3fe608060405234801561001057600080fd5b5060043610610154576000357c0100000000000000000000000000000000000000000000000000000000900480639a86139b116100d5578063bc694ea211610099578063bc694ea21461055a578063c36596a614610578578063c6580d1214610596578063e4a28a52146105b4578063e9395679146105d2578063ec0930211461067957610154565b80639a86139b146104c4578063b0e0d136146104e2578063b7b800a414610500578063ba019dab1461051e578063bc063e1a1461053c57610154565b80637a36b3ee1161011c5780637a36b3ee1461021b578063867378c5146103e65780639381cd2b1461040457806393e433b214610422578063992e2a92146104a657610154565b806309a3bbe414610159578063189d00ca14610177578063218b538214610195578063409f84fc146101b357806376c7a3c7146101fd575b600080fd5b610161610697565b6040518082815260200191505060405180910390f35b61017f6106a6565b6040518082815260200191505060405180910390f35b61019d6106c0565b6040518082815260200191505060405180910390f35b6101bb6106cc565b604051808273ffffffffffffffffffffffffffffffffffffffff1673ffffffffffffffffffffffffffffffffffffffff16815260200191505060405180910390f35b6102056106f5565b6040518082815260200191505060405180910390f35b61036b6004803603604081101561023157600080fd5b810190808035906020019064010000000081111561024e57600080fd5b82018360208201111561026057600080fd5b8035906020019184600183028401116401000000008311171561028257600080fd5b91908080601f016020809104026020016040519081016040528093929190818152602001838380828437600081840152601f19601f820116905080830192505050505050509192919290803590602001906401000000008111156102e557600080fd5b8201836020820111156102f757600080fd5b8035906020019184600183028401116401000000008311171561031957600080fd5b91908080601f016020809104026020016040519081016040528093929190818152602001838380828437600081840152601f19601f82011690508083019250505050505050919291929050505061070d565b6040518080602001828103825283818151815260200191508051906020019080838360005b838110156103ab578082015181840152602081019050610390565b50505050905090810190601f1680156103d85780820380516001836020036101000a031916815260200191505b509250505060405180910390f35b6103ee6107d5565b6040518082815260200191505060405180910390f35b61040c6107ef565b6040518082815260200191505060405180910390f35b6104646004803603602081101561043857600080fd5b81019080803573ffffffffffffffffffffffffffffffffffffffff1690602001909291905050506107fe565b604051808273ffffffffffffffffffffffffffffffffffffffff1673ffffffffffffffffffffffffffffffffffffffff16815260200191505060405180910390f35b6104ae610c36565b6040518082815260200191505060405180910390f35b6104cc610c4f565b6040518082815260200191505060405180910390f35b6104ea610c77565b6040518082815260200191505060405180910390f35b610508610c7c565b6040518082815260200191505060405180910390f35b610526610c81565b6040518082815260200191505060405180910390f35b610544610c86565b6040518082815260200191505060405180910390f35b610562610c9c565b6040518082815260200191505060405180910390f35b610580610cae565b6040518082815260200191505060405180910390f35b61059e610cba565b6040518082815260200191505060405180910390f35b6105bc610cbf565b6040518082815260200191505060405180910390f35b6105fe600480360360208110156105e857600080fd5b8101908080359060200190929190505050610cce565b6040518080602001828103825283818151815260200191508051906020019080838360005b8381101561063e578082015181840152602081019050610623565b50505050905090810190601f16801561066b5780820380516001836020036101000a031916815260200191505b509250505060405180910390f35b610681610e1d565b6040518082815260200191505060405180910390f35b6032670de0b6b3a76400000281565b6402540be400670de0b6b3a7640000816106bc57fe5b0481565b670de0b6b3a764000081565b60008060009054906101000a900473ffffffffffffffffffffffffffffffffffffffff16905090565b620f4240670de0b6b3a76400008161070957fe5b0481565b606082826040516020018083805190602001908083835b602083106107475780518252602082019150602081019050602083039250610724565b6001836020036101000a03801982511681845116808217855250505050505090500182805190602001908083835b602083106107985780518252602082019150602081019050602083039250610775565b6001836020036101000a03801982511681845116808217855250505050505090500192505050604051602081830303815290604052905092915050565b64e8d4a51000670de0b6b3a7640000816107eb57fe5b0481565b6064670de0b6b3a76400000281565b600061082a6000809054906101000a900473ffffffffffffffffffffffffffffffffffffffff16610e33565b9050600073ffffffffffffffffffffffffffffffffffffffff168173ffffffffffffffffffffffffffffffffffffffff1614156108cf576040517f08c379a000000000000000000000000000000000000000000000000000000000815260040180806020018281038252600d8152602001807f4552525f414444524553535f300000000000000000000000000000000000000081525060200191505060405180910390fd5b600081905060003090506000620f4240670de0b6b3a7640000816108ef57fe5b049050600080905060008090508473ffffffffffffffffffffffffffffffffffffffff1663506de97488868686866040518663ffffffff167c0100000000000000000000000000000000000000000000000000000000028152600401808673ffffffffffffffffffffffffffffffffffffffff1673ffffffffffffffffffffffffffffffffffffffff1681526020018573ffffffffffffffffffffffffffffffffffffffff1673ffffffffffffffffffffffffffffffffffffffff168152602001848152602001831515151581526020018215151515815260200195505050505050602060405180830381600087803b1580156109eb57600080fd5b505af11580156109ff573d6000803e3d6000fd5b505050506040513d6020811015610a1557600080fd5b8101908080519060200190929190505050508473ffffffffffffffffffffffffffffffffffffffff1663392e53cd6040518163ffffffff167c010000000000000000000000000000000000000000000000000000000002815260040160206040518083038186803b158015610a8957600080fd5b505afa158015610a9d573d6000803e3d6000fd5b505050506040513d6020811015610ab357600080fd5b8101908080519060200190929190505050610b36576040517f08c379a00000000000000000000000000000000000000000000000000000000081526004018080602001828103825260148152602001807f4552525f494e495449414c495a455f53504f4f4c00000000000000000000000081525060200191505060405180910390fd5b6000809054906101000a900473ffffffffffffffffffffffffffffffffffffffff1673ffffffffffffffffffffffffffffffffffffffff168673ffffffffffffffffffffffffffffffffffffffff167f75c84bc3fea03d287558c86073810ad6f2c1bd373d9982ac615203d1539aff1360405160405180910390a3433373ffffffffffffffffffffffffffffffffffffffff167f14e7567eaf089d4c31f0ebf88996f9e09fdb0dd445800675a7c81a5dfe8e37e588604051808273ffffffffffffffffffffffffffffffffffffffff1673ffffffffffffffffffffffffffffffffffffffff16815260200191505060405180910390a35050505050919050565b60016003670de0b6b3a764000081610c4a57fe5b040181565b60007f42524f4e5a450000000000000000000000000000000000000000000000000000905090565b600881565b600281565b600181565b600a670de0b6b3a764000081610c9857fe5b0481565b6001670de0b6b3a76400006002020381565b670de0b6b3a764000081565b600081565b6032670de0b6b3a76400000281565b60606000821415610d16576040518060400160405280600181526020017f30000000000000000000000000000000000000000000000000000000000000008152509050610e18565b600082905060005b60008214610d40578080600101915050600a8281610d3857fe5b049150610d1e565b6060816040519080825280601f01601f191660200182016040528015610d755781602001600182028038833980820191505090505b50905060006001830390508593505b60008414610e1057600a8481610d9657fe5b066030017f01000000000000000000000000000000000000000000000000000000000000000282828060019003935081518110610dcf57fe5b60200101907effffffffffffffffffffffffffffffffffffffffffffffffffffffffffffff1916908160001a905350600a8481610e0857fe5b049350610d84565b819450505050505b919050565b6002670de0b6b3a764000081610e2f57fe5b0481565b600080826c010000000000000000000000000290506040517f3d602d80600a3d3981f3363d3d373d3d3d363d7300000000000000000000000081528160148201527f5af43d82803e903d91602b57fd5bf3000000000000000000000000000000000060288201526037816000f09250507f117c72e6c25f0a072e36e148df71468ce2f3dbe7defec5b2c257a6e3eb65278c82604051808273ffffffffffffffffffffffffffffffffffffffff1673ffffffffffffffffffffffffffffffffffffffff16815260200191505060405180910390a15091905056fea165627a7a72305820e40cca69c9bd7ead45cb45f922554f414b22a98c5db8c79bb66ebfeb7fd1c1440029",
  "source": "pragma solidity ^0.5.7;\n// Copyright BigchainDB GmbH and Ocean Protocol contributors\n// SPDX-License-Identifier: (Apache-2.0 AND CC-BY-4.0)\n// Code is Apache-2.0 and docs are CC-BY-4.0\n\nimport '../utils/Deployer.sol';\nimport '../utils/Converter.sol';\nimport './SPool.sol';\nimport './BConst.sol';\n\n/*\n* @title SFactory contract\n* @author Ocean Protocol (with code from Balancer Labs)\n*\n* @dev Ocean implementation of Balancer SPool Factory\n*      SFactory deploys SPool proxy contracts.\n*      New SPool proxy contracts are links to the template contract's bytecode. \n*      Proxy contract functionality is based on Ocean Protocol custom\n*        implementation of ERC1167 standard.\n*/\n\ncontract SFactory is BConst, Deployer, Converter {\n\n    address private _spoolTemplate;\n\n    event SPoolCreated(\n        address indexed newSPoolAddress, \n        address indexed spoolTemplateAddress\n    );\n    \n    event SPoolRegistered(\n        address spoolAddress,\n        address indexed registeredBy,\n        uint256 indexed registeredAt\n    );\n    \n    /* @dev Called on contract deployment. Cannot be called with zero address.\n       @param _spoolTemplate -- address of a deployed SPool contract. */\n    constructor(address spoolTemplate) \n        public \n    {\n        require(spoolTemplate != address(0), 'ERR_ADDRESS_0');\n        _spoolTemplate = spoolTemplate;\n    }\n\n    /* @dev Deploys new SPool proxy contract.\n       Template contract address could not be a zero address. \n       @return address of a new proxy SPool contract */\n    function newSPool(address controller) \n        public\n        returns (address spool)\n    {\n        spool = deploy(_spoolTemplate);\n        require(spool != address(0), 'ERR_ADDRESS_0');\n        \n        SPool spoolInstance = SPool(spool);\n\t\n        address factory = address(this);\n        uint swapFee = MIN_FEE;\n        bool publicSwap = false;\n        bool finalized = false;\n        spoolInstance.initialize(\n            controller, \n            factory, \n            swapFee, \n            publicSwap,\n            finalized\n        );\n\t\n        require(spoolInstance.isInitialized(), 'ERR_INITIALIZE_SPOOL');\n        emit SPoolCreated(spool, _spoolTemplate);\n        emit SPoolRegistered(spool, msg.sender, block.number);\n    }\n\n\n    /* @dev get the spool template address\n       @return the template address */\n    function getSPool()\n        external\n        view\n        returns (address)\n    {\n        return _spoolTemplate;\n    }\n}\n",
  "sourcePath": "/Users/ahmedali/Desktop/work/Ocean/ocean-contracts/contracts/balancer/SFactory.sol",
  "compiler": {
    "name": "solc",
    "version": "0.5.7+commit.6da8b019.Emscripten.clang"
  },
  "schemaVersion": "3.2.0",
  "updatedAt": "2020-07-01T18:39:45.208Z",
  "devdoc": {
    "methods": {
      "concatenateStrings(string,string)": {
        "details": "concatenateStrings     concatenates two strings",
        "params": {
          "str1": "refers to first string",
          "str2": "refers to second string"
        },
        "return": "catenated string value"
      },
      "uintToString(uint256)": {
        "details": "uintToString     converts an integer value to a string value",
        "params": {
          "value": "refers to integer value"
        },
        "return": "converted string value"
      }
    }
  },
  "userdoc": {
    "methods": {}
  }
}