{
  "contractName": "SPool",
  "abi": [
    {
      "constant": true,
      "inputs": [],
      "name": "name",
      "outputs": [
        {
          "name": "",
          "type": "string"
        }
      ],
      "payable": false,
      "stateMutability": "view",
      "type": "function"
    },
    {
      "constant": false,
      "inputs": [
        {
          "name": "dst",
          "type": "address"
        },
        {
          "name": "amt",
          "type": "uint256"
        }
      ],
      "name": "approve",
      "outputs": [
        {
          "name": "",
          "type": "bool"
        }
      ],
      "payable": false,
      "stateMutability": "nonpayable",
      "type": "function"
    },
    {
      "constant": true,
      "inputs": [],
      "name": "MAX_TOTAL_WEIGHT",
      "outputs": [
        {
          "name": "",
          "type": "uint256"
        }
      ],
      "payable": false,
      "stateMutability": "view",
      "type": "function"
    },
    {
      "constant": true,
      "inputs": [],
      "name": "totalSupply",
      "outputs": [
        {
          "name": "",
          "type": "uint256"
        }
      ],
      "payable": false,
      "stateMutability": "view",
      "type": "function"
    },
    {
      "constant": true,
      "inputs": [],
      "name": "BPOW_PRECISION",
      "outputs": [
        {
          "name": "",
          "type": "uint256"
        }
      ],
      "payable": false,
      "stateMutability": "view",
      "type": "function"
    },
    {
      "constant": true,
      "inputs": [],
      "name": "MIN_WEIGHT",
      "outputs": [
        {
          "name": "",
          "type": "uint256"
        }
      ],
      "payable": false,
      "stateMutability": "view",
      "type": "function"
    },
    {
      "constant": false,
      "inputs": [
        {
          "name": "src",
          "type": "address"
        },
        {
          "name": "dst",
          "type": "address"
        },
        {
          "name": "amt",
          "type": "uint256"
        }
      ],
      "name": "transferFrom",
      "outputs": [
        {
          "name": "",
          "type": "bool"
        }
      ],
      "payable": false,
      "stateMutability": "nonpayable",
      "type": "function"
    },
    {
      "constant": true,
      "inputs": [],
      "name": "decimals",
      "outputs": [
        {
          "name": "",
          "type": "uint8"
        }
      ],
      "payable": false,
      "stateMutability": "view",
      "type": "function"
    },
    {
      "constant": true,
      "inputs": [
        {
          "name": "tokenBalanceIn",
          "type": "uint256"
        },
        {
          "name": "tokenWeightIn",
          "type": "uint256"
        },
        {
          "name": "poolSupply",
          "type": "uint256"
        },
        {
          "name": "totalWeight",
          "type": "uint256"
        },
        {
          "name": "poolAmountOut",
          "type": "uint256"
        },
        {
          "name": "swapFee",
          "type": "uint256"
        }
      ],
      "name": "calcSingleInGivenPoolOut",
      "outputs": [
        {
          "name": "tokenAmountIn",
          "type": "uint256"
        }
      ],
      "payable": false,
      "stateMutability": "pure",
      "type": "function"
    },
    {
      "constant": false,
      "inputs": [
        {
          "name": "dst",
          "type": "address"
        },
        {
          "name": "amt",
          "type": "uint256"
        }
      ],
      "name": "decreaseApproval",
      "outputs": [
        {
          "name": "",
          "type": "bool"
        }
      ],
      "payable": false,
      "stateMutability": "nonpayable",
      "type": "function"
    },
    {
      "constant": true,
      "inputs": [
        {
          "name": "whom",
          "type": "address"
        }
      ],
      "name": "balanceOf",
      "outputs": [
        {
          "name": "",
          "type": "uint256"
        }
      ],
      "payable": false,
      "stateMutability": "view",
      "type": "function"
    },
    {
      "constant": true,
      "inputs": [],
      "name": "MIN_FEE",
      "outputs": [
        {
          "name": "",
          "type": "uint256"
        }
      ],
      "payable": false,
      "stateMutability": "view",
      "type": "function"
    },
    {
      "constant": true,
      "inputs": [
        {
          "name": "tokenBalanceOut",
          "type": "uint256"
        },
        {
          "name": "tokenWeightOut",
          "type": "uint256"
        },
        {
          "name": "poolSupply",
          "type": "uint256"
        },
        {
          "name": "totalWeight",
          "type": "uint256"
        },
        {
          "name": "tokenAmountOut",
          "type": "uint256"
        },
        {
          "name": "swapFee",
          "type": "uint256"
        }
      ],
      "name": "calcPoolInGivenSingleOut",
      "outputs": [
        {
          "name": "poolAmountIn",
          "type": "uint256"
        }
      ],
      "payable": false,
      "stateMutability": "pure",
      "type": "function"
    },
    {
      "constant": true,
      "inputs": [
        {
          "name": "tokenBalanceIn",
          "type": "uint256"
        },
        {
          "name": "tokenWeightIn",
          "type": "uint256"
        },
        {
          "name": "poolSupply",
          "type": "uint256"
        },
        {
          "name": "totalWeight",
          "type": "uint256"
        },
        {
          "name": "tokenAmountIn",
          "type": "uint256"
        },
        {
          "name": "swapFee",
          "type": "uint256"
        }
      ],
      "name": "calcPoolOutGivenSingleIn",
      "outputs": [
        {
          "name": "poolAmountOut",
          "type": "uint256"
        }
      ],
      "payable": false,
      "stateMutability": "pure",
      "type": "function"
    },
    {
      "constant": true,
      "inputs": [],
      "name": "MIN_BALANCE",
      "outputs": [
        {
          "name": "",
          "type": "uint256"
        }
      ],
      "payable": false,
      "stateMutability": "view",
      "type": "function"
    },
    {
      "constant": true,
      "inputs": [
        {
          "name": "tokenBalanceOut",
          "type": "uint256"
        },
        {
          "name": "tokenWeightOut",
          "type": "uint256"
        },
        {
          "name": "poolSupply",
          "type": "uint256"
        },
        {
          "name": "totalWeight",
          "type": "uint256"
        },
        {
          "name": "poolAmountIn",
          "type": "uint256"
        },
        {
          "name": "swapFee",
          "type": "uint256"
        }
      ],
      "name": "calcSingleOutGivenPoolIn",
      "outputs": [
        {
          "name": "tokenAmountOut",
          "type": "uint256"
        }
      ],
      "payable": false,
      "stateMutability": "pure",
      "type": "function"
    },
    {
      "constant": true,
      "inputs": [],
      "name": "INIT_POOL_SUPPLY",
      "outputs": [
        {
          "name": "",
          "type": "uint256"
        }
      ],
      "payable": false,
      "stateMutability": "view",
      "type": "function"
    },
    {
      "constant": true,
      "inputs": [],
      "name": "symbol",
      "outputs": [
        {
          "name": "",
          "type": "string"
        }
      ],
      "payable": false,
      "stateMutability": "view",
      "type": "function"
    },
    {
      "constant": true,
      "inputs": [],
      "name": "MAX_OUT_RATIO",
      "outputs": [
        {
          "name": "",
          "type": "uint256"
        }
      ],
      "payable": false,
      "stateMutability": "view",
      "type": "function"
    },
    {
      "constant": true,
      "inputs": [],
      "name": "getColor",
      "outputs": [
        {
          "name": "",
          "type": "bytes32"
        }
      ],
      "payable": false,
      "stateMutability": "view",
      "type": "function"
    },
    {
      "constant": true,
      "inputs": [
        {
          "name": "tokenBalanceIn",
          "type": "uint256"
        },
        {
          "name": "tokenWeightIn",
          "type": "uint256"
        },
        {
          "name": "tokenBalanceOut",
          "type": "uint256"
        },
        {
          "name": "tokenWeightOut",
          "type": "uint256"
        },
        {
          "name": "swapFee",
          "type": "uint256"
        }
      ],
      "name": "calcSpotPrice",
      "outputs": [
        {
          "name": "spotPrice",
          "type": "uint256"
        }
      ],
      "payable": false,
      "stateMutability": "pure",
      "type": "function"
    },
    {
      "constant": false,
      "inputs": [
        {
          "name": "dst",
          "type": "address"
        },
        {
          "name": "amt",
          "type": "uint256"
        }
      ],
      "name": "transfer",
      "outputs": [
        {
          "name": "",
          "type": "bool"
        }
      ],
      "payable": false,
      "stateMutability": "nonpayable",
      "type": "function"
    },
    {
      "constant": true,
      "inputs": [],
      "name": "MAX_BOUND_TOKENS",
      "outputs": [
        {
          "name": "",
          "type": "uint256"
        }
      ],
      "payable": false,
      "stateMutability": "view",
      "type": "function"
    },
    {
      "constant": true,
      "inputs": [],
      "name": "MIN_BOUND_TOKENS",
      "outputs": [
        {
          "name": "",
          "type": "uint256"
        }
      ],
      "payable": false,
      "stateMutability": "view",
      "type": "function"
    },
    {
      "constant": true,
      "inputs": [],
      "name": "MIN_BPOW_BASE",
      "outputs": [
        {
          "name": "",
          "type": "uint256"
        }
      ],
      "payable": false,
      "stateMutability": "view",
      "type": "function"
    },
    {
      "constant": true,
      "inputs": [
        {
          "name": "tokenBalanceIn",
          "type": "uint256"
        },
        {
          "name": "tokenWeightIn",
          "type": "uint256"
        },
        {
          "name": "tokenBalanceOut",
          "type": "uint256"
        },
        {
          "name": "tokenWeightOut",
          "type": "uint256"
        },
        {
          "name": "tokenAmountIn",
          "type": "uint256"
        },
        {
          "name": "swapFee",
          "type": "uint256"
        }
      ],
      "name": "calcOutGivenIn",
      "outputs": [
        {
          "name": "tokenAmountOut",
          "type": "uint256"
        }
      ],
      "payable": false,
      "stateMutability": "pure",
      "type": "function"
    },
    {
      "constant": true,
      "inputs": [],
      "name": "MAX_FEE",
      "outputs": [
        {
          "name": "",
          "type": "uint256"
        }
      ],
      "payable": false,
      "stateMutability": "view",
      "type": "function"
    },
    {
      "constant": true,
      "inputs": [],
      "name": "MAX_BPOW_BASE",
      "outputs": [
        {
          "name": "",
          "type": "uint256"
        }
      ],
      "payable": false,
      "stateMutability": "view",
      "type": "function"
    },
    {
      "constant": true,
      "inputs": [],
      "name": "BONE",
      "outputs": [
        {
          "name": "",
          "type": "uint256"
        }
      ],
      "payable": false,
      "stateMutability": "view",
      "type": "function"
    },
    {
      "constant": true,
      "inputs": [],
      "name": "EXIT_FEE",
      "outputs": [
        {
          "name": "",
          "type": "uint256"
        }
      ],
      "payable": false,
      "stateMutability": "view",
      "type": "function"
    },
    {
      "constant": false,
      "inputs": [
        {
          "name": "dst",
          "type": "address"
        },
        {
          "name": "amt",
          "type": "uint256"
        }
      ],
      "name": "increaseApproval",
      "outputs": [
        {
          "name": "",
          "type": "bool"
        }
      ],
      "payable": false,
      "stateMutability": "nonpayable",
      "type": "function"
    },
    {
      "constant": true,
      "inputs": [
        {
          "name": "src",
          "type": "address"
        },
        {
          "name": "dst",
          "type": "address"
        }
      ],
      "name": "allowance",
      "outputs": [
        {
          "name": "",
          "type": "uint256"
        }
      ],
      "payable": false,
      "stateMutability": "view",
      "type": "function"
    },
    {
      "constant": true,
      "inputs": [],
      "name": "MAX_WEIGHT",
      "outputs": [
        {
          "name": "",
          "type": "uint256"
        }
      ],
      "payable": false,
      "stateMutability": "view",
      "type": "function"
    },
    {
      "constant": true,
      "inputs": [],
      "name": "MAX_IN_RATIO",
      "outputs": [
        {
          "name": "",
          "type": "uint256"
        }
      ],
      "payable": false,
      "stateMutability": "view",
      "type": "function"
    },
    {
      "constant": true,
      "inputs": [
        {
          "name": "tokenBalanceIn",
          "type": "uint256"
        },
        {
          "name": "tokenWeightIn",
          "type": "uint256"
        },
        {
          "name": "tokenBalanceOut",
          "type": "uint256"
        },
        {
          "name": "tokenWeightOut",
          "type": "uint256"
        },
        {
          "name": "tokenAmountOut",
          "type": "uint256"
        },
        {
          "name": "swapFee",
          "type": "uint256"
        }
      ],
      "name": "calcInGivenOut",
      "outputs": [
        {
          "name": "tokenAmountIn",
          "type": "uint256"
        }
      ],
      "payable": false,
      "stateMutability": "pure",
      "type": "function"
    },
    {
      "inputs": [],
      "payable": false,
      "stateMutability": "nonpayable",
      "type": "constructor"
    },
    {
      "anonymous": false,
      "inputs": [
        {
          "indexed": true,
          "name": "caller",
          "type": "address"
        },
        {
          "indexed": true,
          "name": "tokenIn",
          "type": "address"
        },
        {
          "indexed": true,
          "name": "tokenOut",
          "type": "address"
        },
        {
          "indexed": false,
          "name": "tokenAmountIn",
          "type": "uint256"
        },
        {
          "indexed": false,
          "name": "tokenAmountOut",
          "type": "uint256"
        }
      ],
      "name": "LOG_SWAP",
      "type": "event"
    },
    {
      "anonymous": false,
      "inputs": [
        {
          "indexed": true,
          "name": "caller",
          "type": "address"
        },
        {
          "indexed": true,
          "name": "tokenIn",
          "type": "address"
        },
        {
          "indexed": false,
          "name": "tokenAmountIn",
          "type": "uint256"
        }
      ],
      "name": "LOG_JOIN",
      "type": "event"
    },
    {
      "anonymous": false,
      "inputs": [
        {
          "indexed": true,
          "name": "caller",
          "type": "address"
        },
        {
          "indexed": true,
          "name": "tokenOut",
          "type": "address"
        },
        {
          "indexed": false,
          "name": "tokenAmountOut",
          "type": "uint256"
        }
      ],
      "name": "LOG_EXIT",
      "type": "event"
    },
    {
      "anonymous": true,
      "inputs": [
        {
          "indexed": true,
          "name": "sig",
          "type": "bytes4"
        },
        {
          "indexed": true,
          "name": "caller",
          "type": "address"
        },
        {
          "indexed": false,
          "name": "data",
          "type": "bytes"
        }
      ],
      "name": "LOG_CALL",
      "type": "event"
    },
    {
      "anonymous": false,
      "inputs": [
        {
          "indexed": true,
          "name": "src",
          "type": "address"
        },
        {
          "indexed": true,
          "name": "dst",
          "type": "address"
        },
        {
          "indexed": false,
          "name": "amt",
          "type": "uint256"
        }
      ],
      "name": "Approval",
      "type": "event"
    },
    {
      "anonymous": false,
      "inputs": [
        {
          "indexed": true,
          "name": "src",
          "type": "address"
        },
        {
          "indexed": true,
          "name": "dst",
          "type": "address"
        },
        {
          "indexed": false,
          "name": "amt",
          "type": "uint256"
        }
      ],
      "name": "Transfer",
      "type": "event"
    },
    {
      "constant": true,
      "inputs": [],
      "name": "isInitialized",
      "outputs": [
        {
          "name": "",
          "type": "bool"
        }
      ],
      "payable": false,
      "stateMutability": "view",
      "type": "function"
    },
    {
      "constant": false,
      "inputs": [
        {
          "name": "controller",
          "type": "address"
        },
        {
          "name": "factory",
          "type": "address"
        },
        {
          "name": "swapFee",
          "type": "uint256"
        },
        {
          "name": "publicSwap",
          "type": "bool"
        },
        {
          "name": "finalized",
          "type": "bool"
        }
      ],
      "name": "initialize",
      "outputs": [
        {
          "name": "",
          "type": "bool"
        }
      ],
      "payable": false,
      "stateMutability": "nonpayable",
      "type": "function"
    },
    {
      "constant": true,
      "inputs": [],
      "name": "isPublicSwap",
      "outputs": [
        {
          "name": "",
          "type": "bool"
        }
      ],
      "payable": false,
      "stateMutability": "view",
      "type": "function"
    },
    {
      "constant": true,
      "inputs": [],
      "name": "isFinalized",
      "outputs": [
        {
          "name": "",
          "type": "bool"
        }
      ],
      "payable": false,
      "stateMutability": "view",
      "type": "function"
    },
    {
      "constant": true,
      "inputs": [
        {
          "name": "t",
          "type": "address"
        }
      ],
      "name": "isBound",
      "outputs": [
        {
          "name": "",
          "type": "bool"
        }
      ],
      "payable": false,
      "stateMutability": "view",
      "type": "function"
    },
    {
      "constant": true,
      "inputs": [],
      "name": "getNumTokens",
      "outputs": [
        {
          "name": "",
          "type": "uint256"
        }
      ],
      "payable": false,
      "stateMutability": "view",
      "type": "function"
    },
    {
      "constant": true,
      "inputs": [],
      "name": "getCurrentTokens",
      "outputs": [
        {
          "name": "tokens",
          "type": "address[]"
        }
      ],
      "payable": false,
      "stateMutability": "view",
      "type": "function"
    },
    {
      "constant": true,
      "inputs": [],
      "name": "getFinalTokens",
      "outputs": [
        {
          "name": "tokens",
          "type": "address[]"
        }
      ],
      "payable": false,
      "stateMutability": "view",
      "type": "function"
    },
    {
      "constant": true,
      "inputs": [
        {
          "name": "token",
          "type": "address"
        }
      ],
      "name": "getDenormalizedWeight",
      "outputs": [
        {
          "name": "",
          "type": "uint256"
        }
      ],
      "payable": false,
      "stateMutability": "view",
      "type": "function"
    },
    {
      "constant": true,
      "inputs": [],
      "name": "getTotalDenormalizedWeight",
      "outputs": [
        {
          "name": "",
          "type": "uint256"
        }
      ],
      "payable": false,
      "stateMutability": "view",
      "type": "function"
    },
    {
      "constant": true,
      "inputs": [
        {
          "name": "token",
          "type": "address"
        }
      ],
      "name": "getNormalizedWeight",
      "outputs": [
        {
          "name": "",
          "type": "uint256"
        }
      ],
      "payable": false,
      "stateMutability": "view",
      "type": "function"
    },
    {
      "constant": true,
      "inputs": [
        {
          "name": "token",
          "type": "address"
        }
      ],
      "name": "getBalance",
      "outputs": [
        {
          "name": "",
          "type": "uint256"
        }
      ],
      "payable": false,
      "stateMutability": "view",
      "type": "function"
    },
    {
      "constant": true,
      "inputs": [],
      "name": "getSwapFee",
      "outputs": [
        {
          "name": "",
          "type": "uint256"
        }
      ],
      "payable": false,
      "stateMutability": "view",
      "type": "function"
    },
    {
      "constant": true,
      "inputs": [],
      "name": "getController",
      "outputs": [
        {
          "name": "",
          "type": "address"
        }
      ],
      "payable": false,
      "stateMutability": "view",
      "type": "function"
    },
    {
      "constant": false,
      "inputs": [
        {
          "name": "swapFee",
          "type": "uint256"
        }
      ],
      "name": "setSwapFee",
      "outputs": [],
      "payable": false,
      "stateMutability": "nonpayable",
      "type": "function"
    },
    {
      "constant": false,
      "inputs": [
        {
          "name": "manager",
          "type": "address"
        }
      ],
      "name": "setController",
      "outputs": [],
      "payable": false,
      "stateMutability": "nonpayable",
      "type": "function"
    },
    {
      "constant": false,
      "inputs": [
        {
          "name": "public_",
          "type": "bool"
        }
      ],
      "name": "setPublicSwap",
      "outputs": [],
      "payable": false,
      "stateMutability": "nonpayable",
      "type": "function"
    },
    {
      "constant": false,
      "inputs": [],
      "name": "finalize",
      "outputs": [],
      "payable": false,
      "stateMutability": "nonpayable",
      "type": "function"
    },
    {
      "constant": false,
      "inputs": [
        {
          "name": "token",
          "type": "address"
        },
        {
          "name": "balance",
          "type": "uint256"
        },
        {
          "name": "denorm",
          "type": "uint256"
        }
      ],
      "name": "bind",
      "outputs": [],
      "payable": false,
      "stateMutability": "nonpayable",
      "type": "function"
    },
    {
      "constant": false,
      "inputs": [
        {
          "name": "token",
          "type": "address"
        },
        {
          "name": "balance",
          "type": "uint256"
        },
        {
          "name": "denorm",
          "type": "uint256"
        }
      ],
      "name": "rebind",
      "outputs": [],
      "payable": false,
      "stateMutability": "nonpayable",
      "type": "function"
    },
    {
      "constant": false,
      "inputs": [
        {
          "name": "token",
          "type": "address"
        }
      ],
      "name": "unbind",
      "outputs": [],
      "payable": false,
      "stateMutability": "nonpayable",
      "type": "function"
    },
    {
      "constant": false,
      "inputs": [
        {
          "name": "token",
          "type": "address"
        }
      ],
      "name": "gulp",
      "outputs": [],
      "payable": false,
      "stateMutability": "nonpayable",
      "type": "function"
    },
    {
      "constant": true,
      "inputs": [
        {
          "name": "tokenIn",
          "type": "address"
        },
        {
          "name": "tokenOut",
          "type": "address"
        }
      ],
      "name": "getSpotPrice",
      "outputs": [
        {
          "name": "spotPrice",
          "type": "uint256"
        }
      ],
      "payable": false,
      "stateMutability": "view",
      "type": "function"
    },
    {
      "constant": true,
      "inputs": [
        {
          "name": "tokenIn",
          "type": "address"
        },
        {
          "name": "tokenOut",
          "type": "address"
        }
      ],
      "name": "getSpotPriceSansFee",
      "outputs": [
        {
          "name": "spotPrice",
          "type": "uint256"
        }
      ],
      "payable": false,
      "stateMutability": "view",
      "type": "function"
    },
    {
      "constant": false,
      "inputs": [
        {
          "name": "poolAmountOut",
          "type": "uint256"
        },
        {
          "name": "maxAmountsIn",
          "type": "uint256[]"
        }
      ],
      "name": "joinPool",
      "outputs": [],
      "payable": false,
      "stateMutability": "nonpayable",
      "type": "function"
    },
    {
      "constant": false,
      "inputs": [
        {
          "name": "poolAmountIn",
          "type": "uint256"
        },
        {
          "name": "minAmountsOut",
          "type": "uint256[]"
        }
      ],
      "name": "exitPool",
      "outputs": [],
      "payable": false,
      "stateMutability": "nonpayable",
      "type": "function"
    },
    {
      "constant": false,
      "inputs": [
        {
          "name": "tokenIn",
          "type": "address"
        },
        {
          "name": "tokenAmountIn",
          "type": "uint256"
        },
        {
          "name": "tokenOut",
          "type": "address"
        },
        {
          "name": "minAmountOut",
          "type": "uint256"
        },
        {
          "name": "maxPrice",
          "type": "uint256"
        }
      ],
      "name": "swapExactAmountIn",
      "outputs": [
        {
          "name": "tokenAmountOut",
          "type": "uint256"
        },
        {
          "name": "spotPriceAfter",
          "type": "uint256"
        }
      ],
      "payable": false,
      "stateMutability": "nonpayable",
      "type": "function"
    },
    {
      "constant": false,
      "inputs": [
        {
          "name": "tokenIn",
          "type": "address"
        },
        {
          "name": "maxAmountIn",
          "type": "uint256"
        },
        {
          "name": "tokenOut",
          "type": "address"
        },
        {
          "name": "tokenAmountOut",
          "type": "uint256"
        },
        {
          "name": "maxPrice",
          "type": "uint256"
        }
      ],
      "name": "swapExactAmountOut",
      "outputs": [
        {
          "name": "tokenAmountIn",
          "type": "uint256"
        },
        {
          "name": "spotPriceAfter",
          "type": "uint256"
        }
      ],
      "payable": false,
      "stateMutability": "nonpayable",
      "type": "function"
    },
    {
      "constant": false,
      "inputs": [
        {
          "name": "tokenIn",
          "type": "address"
        },
        {
          "name": "tokenAmountIn",
          "type": "uint256"
        },
        {
          "name": "minPoolAmountOut",
          "type": "uint256"
        }
      ],
      "name": "joinswapExternAmountIn",
      "outputs": [
        {
          "name": "poolAmountOut",
          "type": "uint256"
        }
      ],
      "payable": false,
      "stateMutability": "nonpayable",
      "type": "function"
    },
    {
      "constant": false,
      "inputs": [
        {
          "name": "tokenIn",
          "type": "address"
        },
        {
          "name": "poolAmountOut",
          "type": "uint256"
        },
        {
          "name": "maxAmountIn",
          "type": "uint256"
        }
      ],
      "name": "joinswapPoolAmountOut",
      "outputs": [
        {
          "name": "tokenAmountIn",
          "type": "uint256"
        }
      ],
      "payable": false,
      "stateMutability": "nonpayable",
      "type": "function"
    },
    {
      "constant": false,
      "inputs": [
        {
          "name": "tokenOut",
          "type": "address"
        },
        {
          "name": "poolAmountIn",
          "type": "uint256"
        },
        {
          "name": "minAmountOut",
          "type": "uint256"
        }
      ],
      "name": "exitswapPoolAmountIn",
      "outputs": [
        {
          "name": "tokenAmountOut",
          "type": "uint256"
        }
      ],
      "payable": false,
      "stateMutability": "nonpayable",
      "type": "function"
    },
    {
      "constant": false,
      "inputs": [
        {
          "name": "tokenOut",
          "type": "address"
        },
        {
          "name": "tokenAmountOut",
          "type": "uint256"
        },
        {
          "name": "maxPoolAmountIn",
          "type": "uint256"
        }
      ],
      "name": "exitswapExternAmountOut",
      "outputs": [
        {
          "name": "poolAmountIn",
          "type": "uint256"
        }
      ],
      "payable": false,
      "stateMutability": "nonpayable",
      "type": "function"
    }
  ],
  "bytecode": "0x60806040526040518060400160405280601381526020017f42616c616e63657220506f6f6c20546f6b656e00000000000000000000000000815250600390805190602001906200005192919062000215565b506040518060400160405280600381526020017f4250540000000000000000000000000000000000000000000000000000000000815250600490805190602001906200009f92919062000215565b506012600560006101000a81548160ff021916908360ff1602179055506000600c60006101000a81548160ff021916908315150217905550348015620000e457600080fd5b50620001193333620f4240670de0b6b3a7640000816200010057fe5b0460008062000120640100000000026401000000009004565b50620002c4565b600085600660006101000a81548173ffffffffffffffffffffffffffffffffffffffff021916908373ffffffffffffffffffffffffffffffffffffffff16021790555084600560026101000a81548173ffffffffffffffffffffffffffffffffffffffff021916908373ffffffffffffffffffffffffffffffffffffffff1602179055508360078190555082600660146101000a81548160ff02191690831515021790555081600860006101000a81548160ff0219169083151502179055506001600c60006101000a81548160ff021916908315150217905550600c60009054906101000a900460ff16905095945050505050565b828054600181600116156101000203166002900490600052602060002090601f016020900481019282601f106200025857805160ff191683800117855562000289565b8280016001018555821562000289579182015b82811115620002885782518255916020019190600101906200026b565b5b5090506200029891906200029c565b5090565b620002c191905b80821115620002bd576000816000905550600101620002a3565b5090565b90565b619bde80620002d46000396000f3fe608060405234801561001057600080fd5b506004361061040e576000357c0100000000000000000000000000000000000000000000000000000000900480638c28cbe811610232578063bc694ea211610142578063d73dd623116100d5578063ec093021116100a4578063ec09302114611693578063f1b8a9b7146116b1578063f8b2cb4f14611709578063f8d6aed414611761578063fde924f7146117d55761040e565b8063d73dd6231461153f578063dd62ed3e146115a5578063e4a28a521461161d578063e4e1e5381461163b5761040e565b8063cc77828d11610111578063cc77828d14611460578063cd2ed8fb146114bf578063cf5e7bd3146114dd578063d4cadf68146115215761040e565b8063bc694ea2146113a7578063be3bbd2e146113c5578063c36596a614611424578063c6580d12146114425761040e565b80639a86139b116101c5578063b0e0d13611610194578063b0e0d136146112bb578063b7b800a4146112d9578063ba019dab146112f7578063ba9530a614611315578063bc063e1a146113895761040e565b80639a86139b1461114a578063a221ee4914611168578063a9059cbb146111d2578063b02f0b73146112385761040e565b80639381cd2b116102015780639381cd2b14611033578063948d8ce61461105157806395d89b41146110a9578063992e2a921461112c5761040e565b80638c28cbe814610f6b5780638d4e408314610faf57806392eefe9b14610fd1578063936c3477146110155761040e565b806346ab38f11161032d5780636d06dfa0116102c05780638201aa3f1161028f5780638201aa3f14610d5457806382f652ad14610df15780638656b65314610e65578063867378c514610ed95780638929801214610ef75761040e565b80636d06dfa014610bd557806370a0823114610c4157806376c7a3c714610c995780637c5e9ea414610cb75761040e565b8063506de974116102fc578063506de974146109f15780635c1bbaf714610a8f5780635db3427714610b035780636618846314610b6f5761040e565b806346ab38f1146108c857806349b59552146109345780634bb278f3146109645780634f69c0d41461096e5761040e565b8063218b5382116103a5578063313ce56711610374578063313ce567146107fc57806334e1990714610820578063392e53cd1461084e5780633fdddaa2146108705761040e565b8063218b5382146106b257806323b872dd146106d05780632f37b624146107565780633018205f146107b25761040e565b80631446a7ff116103e15780631446a7ff1461058657806315e84af9146105fe57806318160ddd14610676578063189d00ca146106945761040e565b806302c967481461041357806306fdde031461047f578063095ea7b31461050257806309a3bbe414610568575b600080fd5b6104696004803603606081101561042957600080fd5b81019080803573ffffffffffffffffffffffffffffffffffffffff16906020019092919080359060200190929190803590602001909291905050506117f7565b6040518082815260200191505060405180910390f35b610487611da1565b6040518080602001828103825283818151815260200191508051906020019080838360005b838110156104c75780820151818401526020810190506104ac565b50505050905090810190601f1680156104f45780820380516001836020036101000a031916815260200191505b509250505060405180910390f35b61054e6004803603604081101561051857600080fd5b81019080803573ffffffffffffffffffffffffffffffffffffffff16906020019092919080359060200190929190505050611e43565b604051808215151515815260200191505060405180910390f35b610570611f35565b6040518082815260200191505060405180910390f35b6105e86004803603604081101561059c57600080fd5b81019080803573ffffffffffffffffffffffffffffffffffffffff169060200190929190803573ffffffffffffffffffffffffffffffffffffffff169060200190929190505050611f44565b6040518082815260200191505060405180910390f35b6106606004803603604081101561061457600080fd5b81019080803573ffffffffffffffffffffffffffffffffffffffff169060200190929190803573ffffffffffffffffffffffffffffffffffffffff1690602001909291905050506121fb565b6040518082815260200191505060405180910390f35b61067e6124b3565b6040518082815260200191505060405180910390f35b61069c6124bd565b6040518082815260200191505060405180910390f35b6106ba6124d7565b6040518082815260200191505060405180910390f35b61073c600480360360608110156106e657600080fd5b81019080803573ffffffffffffffffffffffffffffffffffffffff169060200190929190803573ffffffffffffffffffffffffffffffffffffffff169060200190929190803590602001909291905050506124e3565b604051808215151515815260200191505060405180910390f35b6107986004803603602081101561076c57600080fd5b81019080803573ffffffffffffffffffffffffffffffffffffffff1690602001909291905050506128e8565b604051808215151515815260200191505060405180910390f35b6107ba612941565b604051808273ffffffffffffffffffffffffffffffffffffffff1673ffffffffffffffffffffffffffffffffffffffff16815260200191505060405180910390f35b6108046129ee565b604051808260ff1660ff16815260200191505060405180910390f35b61084c6004803603602081101561083657600080fd5b8101908080359060200190929190505050612a05565b005b610856612dbe565b604051808215151515815260200191505060405180910390f35b6108c66004803603606081101561088657600080fd5b81019080803573ffffffffffffffffffffffffffffffffffffffff1690602001909291908035906020019092919080359060200190929190505050612dd5565b005b61091e600480360360608110156108de57600080fd5b81019080803573ffffffffffffffffffffffffffffffffffffffff169060200190929190803590602001909291908035906020019092919050505061353d565b6040518082815260200191505060405180910390f35b6109626004803603602081101561094a57600080fd5b81019080803515159060200190929190505050613a70565b005b61096c613d2a565b005b6109ef6004803603604081101561098457600080fd5b8101908080359060200190929190803590602001906401000000008111156109ab57600080fd5b8201836020820111156109bd57600080fd5b803590602001918460208302840111640100000000831117156109df57600080fd5b90919293919293905050506140a4565b005b610a75600480360360a0811015610a0757600080fd5b81019080803573ffffffffffffffffffffffffffffffffffffffff169060200190929190803573ffffffffffffffffffffffffffffffffffffffff169060200190929190803590602001909291908035151590602001909291908035151590602001909291905050506145de565b604051808215151515815260200191505060405180910390f35b610aed600480360360c0811015610aa557600080fd5b8101908080359060200190929190803590602001909291908035906020019092919080359060200190929190803590602001909291908035906020019092919050505061467b565b6040518082815260200191505060405180910390f35b610b5960048036036060811015610b1957600080fd5b81019080803573ffffffffffffffffffffffffffffffffffffffff1690602001909291908035906020019092919080359060200190929190505050614737565b6040518082815260200191505060405180910390f35b610bbb60048036036040811015610b8557600080fd5b81019080803573ffffffffffffffffffffffffffffffffffffffff16906020019092919080359060200190929190505050614c22565b604051808215151515815260200191505060405180910390f35b610c2b60048036036060811015610beb57600080fd5b81019080803573ffffffffffffffffffffffffffffffffffffffff1690602001909291908035906020019092919080359060200190929190505050614eaa565b6040518082815260200191505060405180910390f35b610c8360048036036020811015610c5757600080fd5b81019080803573ffffffffffffffffffffffffffffffffffffffff16906020019092919050505061540c565b6040518082815260200191505060405180910390f35b610ca1615454565b6040518082815260200191505060405180910390f35b610d37600480360360a0811015610ccd57600080fd5b81019080803573ffffffffffffffffffffffffffffffffffffffff16906020019092919080359060200190929190803573ffffffffffffffffffffffffffffffffffffffff169060200190929190803590602001909291908035906020019092919050505061546c565b604051808381526020018281526020019250505060405180910390f35b610dd4600480360360a0811015610d6a57600080fd5b81019080803573ffffffffffffffffffffffffffffffffffffffff16906020019092919080359060200190929190803573ffffffffffffffffffffffffffffffffffffffff1690602001909291908035906020019092919080359060200190929190505050615c80565b604051808381526020018281526020019250505060405180910390f35b610e4f600480360360c0811015610e0757600080fd5b81019080803590602001909291908035906020019092919080359060200190929190803590602001909291908035906020019092919080359060200190929190505050616491565b6040518082815260200191505060405180910390f35b610ec3600480360360c0811015610e7b57600080fd5b8101908080359060200190929190803590602001909291908035906020019092919080359060200190929190803590602001909291908035906020019092919050505061655d565b6040518082815260200191505060405180910390f35b610ee1616602565b6040518082815260200191505060405180910390f35b610f55600480360360c0811015610f0d57600080fd5b8101908080359060200190929190803590602001909291908035906020019092919080359060200190929190803590602001909291908035906020019092919050505061661c565b6040518082815260200191505060405180910390f35b610fad60048036036020811015610f8157600080fd5b81019080803573ffffffffffffffffffffffffffffffffffffffff1690602001909291905050506166f3565b005b610fb7616a29565b604051808215151515815260200191505060405180910390f35b61101360048036036020811015610fe757600080fd5b81019080803573ffffffffffffffffffffffffffffffffffffffff169060200190929190505050616a40565b005b61101d616c9e565b6040518082815260200191505060405180910390f35b61103b616d2b565b6040518082815260200191505060405180910390f35b6110936004803603602081101561106757600080fd5b81019080803573ffffffffffffffffffffffffffffffffffffffff169060200190929190505050616d3a565b6040518082815260200191505060405180910390f35b6110b1616ecb565b6040518080602001828103825283818151815260200191508051906020019080838360005b838110156110f15780820151818401526020810190506110d6565b50505050905090810190601f16801561111e5780820380516001836020036101000a031916815260200191505b509250505060405180910390f35b611134616f6d565b6040518082815260200191505060405180910390f35b611152616f86565b6040518082815260200191505060405180910390f35b6111bc600480360360a081101561117e57600080fd5b810190808035906020019092919080359060200190929190803590602001909291908035906020019092919080359060200190929190505050616fae565b6040518082815260200191505060405180910390f35b61121e600480360360408110156111e857600080fd5b81019080803573ffffffffffffffffffffffffffffffffffffffff1690602001909291908035906020019092919050505061701c565b604051808215151515815260200191505060405180910390f35b6112b96004803603604081101561124e57600080fd5b81019080803590602001909291908035906020019064010000000081111561127557600080fd5b82018360208201111561128757600080fd5b803590602001918460208302840111640100000000831117156112a957600080fd5b9091929391929390505050617033565b005b6112c36175b8565b6040518082815260200191505060405180910390f35b6112e16175bd565b6040518082815260200191505060405180910390f35b6112ff6175c2565b6040518082815260200191505060405180910390f35b611373600480360360c081101561132b57600080fd5b810190808035906020019092919080359060200190929190803590602001909291908035906020019092919080359060200190929190803590602001909291905050506175c7565b6040518082815260200191505060405180910390f35b611391617651565b6040518082815260200191505060405180910390f35b6113af617667565b6040518082815260200191505060405180910390f35b6113cd617679565b6040518080602001828103825283818151815260200191508051906020019060200280838360005b838110156114105780820151818401526020810190506113f5565b505050509050019250505060405180910390f35b61142c61780c565b6040518082815260200191505060405180910390f35b61144a617818565b6040518082815260200191505060405180910390f35b61146861781d565b6040518080602001828103825283818151815260200191508051906020019060200280838360005b838110156114ab578082015181840152602081019050611490565b505050509050019250505060405180910390f35b6114c761792e565b6040518082815260200191505060405180910390f35b61151f600480360360208110156114f357600080fd5b81019080803573ffffffffffffffffffffffffffffffffffffffff16906020019092919050505061793b565b005b611529617fd2565b6040518082815260200191505060405180910390f35b61158b6004803603604081101561155557600080fd5b81019080803573ffffffffffffffffffffffffffffffffffffffff1690602001909291908035906020019092919050505061805f565b604051808215151515815260200191505060405180910390f35b611607600480360360408110156115bb57600080fd5b81019080803573ffffffffffffffffffffffffffffffffffffffff169060200190929190803573ffffffffffffffffffffffffffffffffffffffff169060200190929190505050618252565b6040518082815260200191505060405180910390f35b6116256182d9565b6040518082815260200191505060405180910390f35b6116916004803603606081101561165157600080fd5b81019080803573ffffffffffffffffffffffffffffffffffffffff16906020019092919080359060200190929190803590602001909291905050506182e8565b005b61169b61872b565b6040518082815260200191505060405180910390f35b6116f3600480360360208110156116c757600080fd5b81019080803573ffffffffffffffffffffffffffffffffffffffff169060200190929190505050618741565b6040518082815260200191505060405180910390f35b61174b6004803603602081101561171f57600080fd5b81019080803573ffffffffffffffffffffffffffffffffffffffff1690602001909291905050506188e3565b6040518082815260200191505060405180910390f35b6117bf600480360360c081101561177757600080fd5b81019080803590602001909291908035906020019092919080359060200190929190803590602001909291908035906020019092919080359060200190929190505050618a74565b6040518082815260200191505060405180910390f35b6117dd618afb565b604051808215151515815260200191505060405180910390f35b60003373ffffffffffffffffffffffffffffffffffffffff166000357fffffffff00000000000000000000000000000000000000000000000000000000167bffffffffffffffffffffffffffffffffffffffffffffffffffffffff191660003660405180806020018281038252848482818152602001925080828437600081840152601f19601f820116905080830192505050935050505060405180910390a2600560019054906101000a900460ff161561191a576040517f08c379a000000000000000000000000000000000000000000000000000000000815260040180806020018281038252600b8152602001807f4552525f5245454e54525900000000000000000000000000000000000000000081525060200191505060405180910390fd5b6001600560016101000a81548160ff021916908315150217905550600860009054906101000a900460ff166119b7576040517f08c379a00000000000000000000000000000000000000000000000000000000081526004018080602001828103825260118152602001807f4552525f4e4f545f46494e414c495a454400000000000000000000000000000081525060200191505060405180910390fd5b600a60008573ffffffffffffffffffffffffffffffffffffffff1673ffffffffffffffffffffffffffffffffffffffff16815260200190815260200160002060000160009054906101000a900460ff16611a79576040517f08c379a000000000000000000000000000000000000000000000000000000000815260040180806020018281038252600d8152602001807f4552525f4e4f545f424f554e440000000000000000000000000000000000000081525060200191505060405180910390fd5b611ada600a60008673ffffffffffffffffffffffffffffffffffffffff1673ffffffffffffffffffffffffffffffffffffffff1681526020019081526020016000206003015460016003670de0b6b3a764000081611ad357fe5b0401618b12565b831115611b4f576040517f08c379a00000000000000000000000000000000000000000000000000000000081526004018080602001828103825260118152602001807f4552525f4d41585f4f55545f524154494f00000000000000000000000000000081525060200191505060405180910390fd5b6000600a60008673ffffffffffffffffffffffffffffffffffffffff1673ffffffffffffffffffffffffffffffffffffffff1681526020019081526020016000209050611bae81600301548260020154600254600b5488600754616491565b91506000821415611c27576040517f08c379a000000000000000000000000000000000000000000000000000000000815260040180806020018281038252600f8152602001807f4552525f4d4154485f415050524f58000000000000000000000000000000000081525060200191505060405180910390fd5b82821115611c9d576040517f08c379a000000000000000000000000000000000000000000000000000000000815260040180806020018281038252600c8152602001807f4552525f4c494d49545f494e000000000000000000000000000000000000000081525060200191505060405180910390fd5b611cab816003015485618c54565b81600301819055506000611cc0836000618b12565b90508573ffffffffffffffffffffffffffffffffffffffff163373ffffffffffffffffffffffffffffffffffffffff167fe74c91552b64c2e2e7bd255639e004e693bd3e1d01cc33e65610b86afcc1ffed876040518082815260200191505060405180910390a3611d313384618ce6565b611d43611d3e8483618c54565b618cf4565b611d6f600560029054906101000a900473ffffffffffffffffffffffffffffffffffffffff1682618d00565b611d7a863387618d0e565b82925050506000600560016101000a81548160ff0219169083151502179055509392505050565b606060038054600181600116156101000203166002900480601f016020809104026020016040519081016040528092919081815260200182805460018160011615610100020316600290048015611e395780601f10611e0e57610100808354040283529160200191611e39565b820191906000526020600020905b815481529060010190602001808311611e1c57829003601f168201915b5050505050905090565b600081600160003373ffffffffffffffffffffffffffffffffffffffff1673ffffffffffffffffffffffffffffffffffffffff16815260200190815260200160002060008573ffffffffffffffffffffffffffffffffffffffff1673ffffffffffffffffffffffffffffffffffffffff168152602001908152602001600020819055508273ffffffffffffffffffffffffffffffffffffffff163373ffffffffffffffffffffffffffffffffffffffff167f8c5be1e5ebec7d5bd14f71427d1e84f3dd0314c0f7b2291e5b200ac8c7c3b925846040518082815260200191505060405180910390a36001905092915050565b6032670de0b6b3a76400000281565b6000600560019054906101000a900460ff1615611fc9576040517f08c379a000000000000000000000000000000000000000000000000000000000815260040180806020018281038252600b8152602001807f4552525f5245454e54525900000000000000000000000000000000000000000081525060200191505060405180910390fd5b600a60008473ffffffffffffffffffffffffffffffffffffffff1673ffffffffffffffffffffffffffffffffffffffff16815260200190815260200160002060000160009054906101000a900460ff1661208b576040517f08c379a000000000000000000000000000000000000000000000000000000000815260040180806020018281038252600d8152602001807f4552525f4e4f545f424f554e440000000000000000000000000000000000000081525060200191505060405180910390fd5b600a60008373ffffffffffffffffffffffffffffffffffffffff1673ffffffffffffffffffffffffffffffffffffffff16815260200190815260200160002060000160009054906101000a900460ff1661214d576040517f08c379a000000000000000000000000000000000000000000000000000000000815260040180806020018281038252600d8152602001807f4552525f4e4f545f424f554e440000000000000000000000000000000000000081525060200191505060405180910390fd5b6000600a60008573ffffffffffffffffffffffffffffffffffffffff1673ffffffffffffffffffffffffffffffffffffffff16815260200190815260200160002090506000600a60008573ffffffffffffffffffffffffffffffffffffffff1673ffffffffffffffffffffffffffffffffffffffff16815260200190815260200160002090506121f182600301548360020154836003015484600201546000616fae565b9250505092915050565b6000600560019054906101000a900460ff1615612280576040517f08c379a000000000000000000000000000000000000000000000000000000000815260040180806020018281038252600b8152602001807f4552525f5245454e54525900000000000000000000000000000000000000000081525060200191505060405180910390fd5b600a60008473ffffffffffffffffffffffffffffffffffffffff1673ffffffffffffffffffffffffffffffffffffffff16815260200190815260200160002060000160009054906101000a900460ff16612342576040517f08c379a000000000000000000000000000000000000000000000000000000000815260040180806020018281038252600d8152602001807f4552525f4e4f545f424f554e440000000000000000000000000000000000000081525060200191505060405180910390fd5b600a60008373ffffffffffffffffffffffffffffffffffffffff1673ffffffffffffffffffffffffffffffffffffffff16815260200190815260200160002060000160009054906101000a900460ff16612404576040517f08c379a000000000000000000000000000000000000000000000000000000000815260040180806020018281038252600d8152602001807f4552525f4e4f545f424f554e440000000000000000000000000000000000000081525060200191505060405180910390fd5b6000600a60008573ffffffffffffffffffffffffffffffffffffffff1673ffffffffffffffffffffffffffffffffffffffff16815260200190815260200160002090506000600a60008573ffffffffffffffffffffffffffffffffffffffff1673ffffffffffffffffffffffffffffffffffffffff16815260200190815260200160002090506124a98260030154836002015483600301548460020154600754616fae565b9250505092915050565b6000600254905090565b6402540be400670de0b6b3a7640000816124d357fe5b0481565b670de0b6b3a764000081565b60008373ffffffffffffffffffffffffffffffffffffffff163373ffffffffffffffffffffffffffffffffffffffff16148061259b5750600160008573ffffffffffffffffffffffffffffffffffffffff1673ffffffffffffffffffffffffffffffffffffffff16815260200190815260200160002060003373ffffffffffffffffffffffffffffffffffffffff1673ffffffffffffffffffffffffffffffffffffffff168152602001908152602001600020548211155b61260d576040517f08c379a00000000000000000000000000000000000000000000000000000000081526004018080602001828103825260158152602001807f4552525f42544f4b454e5f4241445f43414c4c4552000000000000000000000081525060200191505060405180910390fd5b612618848484618e69565b8373ffffffffffffffffffffffffffffffffffffffff163373ffffffffffffffffffffffffffffffffffffffff16141580156126f057507fffffffffffffffffffffffffffffffffffffffffffffffffffffffffffffffff600160008673ffffffffffffffffffffffffffffffffffffffff1673ffffffffffffffffffffffffffffffffffffffff16815260200190815260200160002060003373ffffffffffffffffffffffffffffffffffffffff1673ffffffffffffffffffffffffffffffffffffffff1681526020019081526020016000205414155b156128dd5761277b600160008673ffffffffffffffffffffffffffffffffffffffff1673ffffffffffffffffffffffffffffffffffffffff16815260200190815260200160002060003373ffffffffffffffffffffffffffffffffffffffff1673ffffffffffffffffffffffffffffffffffffffff1681526020019081526020016000205483618c54565b600160008673ffffffffffffffffffffffffffffffffffffffff1673ffffffffffffffffffffffffffffffffffffffff16815260200190815260200160002060003373ffffffffffffffffffffffffffffffffffffffff1673ffffffffffffffffffffffffffffffffffffffff168152602001908152602001600020819055508273ffffffffffffffffffffffffffffffffffffffff163373ffffffffffffffffffffffffffffffffffffffff167f8c5be1e5ebec7d5bd14f71427d1e84f3dd0314c0f7b2291e5b200ac8c7c3b925600160008873ffffffffffffffffffffffffffffffffffffffff1673ffffffffffffffffffffffffffffffffffffffff16815260200190815260200160002060003373ffffffffffffffffffffffffffffffffffffffff1673ffffffffffffffffffffffffffffffffffffffff168152602001908152602001600020546040518082815260200191505060405180910390a35b600190509392505050565b6000600a60008373ffffffffffffffffffffffffffffffffffffffff1673ffffffffffffffffffffffffffffffffffffffff16815260200190815260200160002060000160009054906101000a900460ff169050919050565b6000600560019054906101000a900460ff16156129c6576040517f08c379a000000000000000000000000000000000000000000000000000000000815260040180806020018281038252600b8152602001807f4552525f5245454e54525900000000000000000000000000000000000000000081525060200191505060405180910390fd5b600660009054906101000a900473ffffffffffffffffffffffffffffffffffffffff16905090565b6000600560009054906101000a900460ff16905090565b3373ffffffffffffffffffffffffffffffffffffffff166000357fffffffff00000000000000000000000000000000000000000000000000000000167bffffffffffffffffffffffffffffffffffffffffffffffffffffffff191660003660405180806020018281038252848482818152602001925080828437600081840152601f19601f820116905080830192505050935050505060405180910390a2600560019054906101000a900460ff1615612b26576040517f08c379a000000000000000000000000000000000000000000000000000000000815260040180806020018281038252600b8152602001807f4552525f5245454e54525900000000000000000000000000000000000000000081525060200191505060405180910390fd5b6001600560016101000a81548160ff021916908315150217905550600860009054906101000a900460ff1615612bc4576040517f08c379a00000000000000000000000000000000000000000000000000000000081526004018080602001828103825260108152602001807f4552525f49535f46494e414c495a45440000000000000000000000000000000081525060200191505060405180910390fd5b600660009054906101000a900473ffffffffffffffffffffffffffffffffffffffff1673ffffffffffffffffffffffffffffffffffffffff163373ffffffffffffffffffffffffffffffffffffffff1614612c87576040517f08c379a00000000000000000000000000000000000000000000000000000000081526004018080602001828103825260128152602001807f4552525f4e4f545f434f4e54524f4c4c4552000000000000000000000000000081525060200191505060405180910390fd5b620f4240670de0b6b3a764000081612c9b57fe5b04811015612d11576040517f08c379a000000000000000000000000000000000000000000000000000000000815260040180806020018281038252600b8152602001807f4552525f4d494e5f46454500000000000000000000000000000000000000000081525060200191505060405180910390fd5b600a670de0b6b3a764000081612d2357fe5b04811115612d99576040517f08c379a000000000000000000000000000000000000000000000000000000000815260040180806020018281038252600b8152602001807f4552525f4d41585f46454500000000000000000000000000000000000000000081525060200191505060405180910390fd5b806007819055506000600560016101000a81548160ff02191690831515021790555050565b6000600c60009054906101000a900460ff16905090565b3373ffffffffffffffffffffffffffffffffffffffff166000357fffffffff00000000000000000000000000000000000000000000000000000000167bffffffffffffffffffffffffffffffffffffffffffffffffffffffff191660003660405180806020018281038252848482818152602001925080828437600081840152601f19601f820116905080830192505050935050505060405180910390a2600560019054906101000a900460ff1615612ef6576040517f08c379a000000000000000000000000000000000000000000000000000000000815260040180806020018281038252600b8152602001807f4552525f5245454e54525900000000000000000000000000000000000000000081525060200191505060405180910390fd5b6001600560016101000a81548160ff021916908315150217905550600660009054906101000a900473ffffffffffffffffffffffffffffffffffffffff1673ffffffffffffffffffffffffffffffffffffffff163373ffffffffffffffffffffffffffffffffffffffff1614612fd4576040517f08c379a00000000000000000000000000000000000000000000000000000000081526004018080602001828103825260128152602001807f4552525f4e4f545f434f4e54524f4c4c4552000000000000000000000000000081525060200191505060405180910390fd5b600a60008473ffffffffffffffffffffffffffffffffffffffff1673ffffffffffffffffffffffffffffffffffffffff16815260200190815260200160002060000160009054906101000a900460ff16613096576040517f08c379a000000000000000000000000000000000000000000000000000000000815260040180806020018281038252600d8152602001807f4552525f4e4f545f424f554e440000000000000000000000000000000000000081525060200191505060405180910390fd5b600860009054906101000a900460ff1615613119576040517f08c379a00000000000000000000000000000000000000000000000000000000081526004018080602001828103825260108152602001807f4552525f49535f46494e414c495a45440000000000000000000000000000000081525060200191505060405180910390fd5b670de0b6b3a7640000811015613197576040517f08c379a000000000000000000000000000000000000000000000000000000000815260040180806020018281038252600e8152602001807f4552525f4d494e5f57454947485400000000000000000000000000000000000081525060200191505060405180910390fd5b6032670de0b6b3a764000002811115613218576040517f08c379a000000000000000000000000000000000000000000000000000000000815260040180806020018281038252600e8152602001807f4552525f4d41585f57454947485400000000000000000000000000000000000081525060200191505060405180910390fd5b64e8d4a51000670de0b6b3a76400008161322e57fe5b048210156132a4576040517f08c379a000000000000000000000000000000000000000000000000000000000815260040180806020018281038252600f8152602001807f4552525f4d494e5f42414c414e4345000000000000000000000000000000000081525060200191505060405180910390fd5b6000600a60008573ffffffffffffffffffffffffffffffffffffffff1673ffffffffffffffffffffffffffffffffffffffff1681526020019081526020016000206002015490508082111561339657613308600b546133038484618c54565b61909b565b600b819055506032670de0b6b3a764000002600b541115613391576040517f08c379a00000000000000000000000000000000000000000000000000000000081526004018080602001828103825260148152602001807f4552525f4d41585f544f54414c5f57454947485400000000000000000000000081525060200191505060405180910390fd5b6133bb565b808210156133ba576133b3600b546133ae8385618c54565b618c54565b600b819055505b5b81600a60008673ffffffffffffffffffffffffffffffffffffffff1673ffffffffffffffffffffffffffffffffffffffff168152602001908152602001600020600201819055506000600a60008673ffffffffffffffffffffffffffffffffffffffff1673ffffffffffffffffffffffffffffffffffffffff16815260200190815260200160002060030154905083600a60008773ffffffffffffffffffffffffffffffffffffffff1673ffffffffffffffffffffffffffffffffffffffff16815260200190815260200160002060030181905550808411156134b1576134ac85336134a78785618c54565b619123565b61351b565b8084101561351a5760006134c58286618c54565b905060006134d4826000618b12565b90506134ea87336134e58585618c54565b618d0e565b61351787600560029054906101000a900473ffffffffffffffffffffffffffffffffffffffff1683618d0e565b50505b5b50506000600560016101000a81548160ff021916908315150217905550505050565b60003373ffffffffffffffffffffffffffffffffffffffff166000357fffffffff00000000000000000000000000000000000000000000000000000000167bffffffffffffffffffffffffffffffffffffffffffffffffffffffff191660003660405180806020018281038252848482818152602001925080828437600081840152601f19601f820116905080830192505050935050505060405180910390a2600560019054906101000a900460ff1615613660576040517f08c379a000000000000000000000000000000000000000000000000000000000815260040180806020018281038252600b8152602001807f4552525f5245454e54525900000000000000000000000000000000000000000081525060200191505060405180910390fd5b6001600560016101000a81548160ff021916908315150217905550600860009054906101000a900460ff166136fd576040517f08c379a00000000000000000000000000000000000000000000000000000000081526004018080602001828103825260118152602001807f4552525f4e4f545f46494e414c495a454400000000000000000000000000000081525060200191505060405180910390fd5b600a60008573ffffffffffffffffffffffffffffffffffffffff1673ffffffffffffffffffffffffffffffffffffffff16815260200190815260200160002060000160009054906101000a900460ff166137bf576040517f08c379a000000000000000000000000000000000000000000000000000000000815260040180806020018281038252600d8152602001807f4552525f4e4f545f424f554e440000000000000000000000000000000000000081525060200191505060405180910390fd5b6000600a60008673ffffffffffffffffffffffffffffffffffffffff1673ffffffffffffffffffffffffffffffffffffffff168152602001908152602001600020905061381e81600301548260020154600254600b548860075461661c565b915082821015613896576040517f08c379a000000000000000000000000000000000000000000000000000000000815260040180806020018281038252600d8152602001807f4552525f4c494d49545f4f55540000000000000000000000000000000000000081525060200191505060405180910390fd5b6138f7600a60008773ffffffffffffffffffffffffffffffffffffffff1673ffffffffffffffffffffffffffffffffffffffff1681526020019081526020016000206003015460016003670de0b6b3a7640000816138f057fe5b0401618b12565b82111561396c576040517f08c379a00000000000000000000000000000000000000000000000000000000081526004018080602001828103825260118152602001807f4552525f4d41585f4f55545f524154494f00000000000000000000000000000081525060200191505060405180910390fd5b61397a816003015483618c54565b8160030181905550600061398f856000618b12565b90508573ffffffffffffffffffffffffffffffffffffffff163373ffffffffffffffffffffffffffffffffffffffff167fe74c91552b64c2e2e7bd255639e004e693bd3e1d01cc33e65610b86afcc1ffed856040518082815260200191505060405180910390a3613a003386618ce6565b613a12613a0d8683618c54565b618cf4565b613a3e600560029054906101000a900473ffffffffffffffffffffffffffffffffffffffff1682618d00565b613a49863385618d0e565b82925050506000600560016101000a81548160ff0219169083151502179055509392505050565b3373ffffffffffffffffffffffffffffffffffffffff166000357fffffffff00000000000000000000000000000000000000000000000000000000167bffffffffffffffffffffffffffffffffffffffffffffffffffffffff191660003660405180806020018281038252848482818152602001925080828437600081840152601f19601f820116905080830192505050935050505060405180910390a2600560019054906101000a900460ff1615613b91576040517f08c379a000000000000000000000000000000000000000000000000000000000815260040180806020018281038252600b8152602001807f4552525f5245454e54525900000000000000000000000000000000000000000081525060200191505060405180910390fd5b6001600560016101000a81548160ff021916908315150217905550600860009054906101000a900460ff1615613c2f576040517f08c379a00000000000000000000000000000000000000000000000000000000081526004018080602001828103825260108152602001807f4552525f49535f46494e414c495a45440000000000000000000000000000000081525060200191505060405180910390fd5b600660009054906101000a900473ffffffffffffffffffffffffffffffffffffffff1673ffffffffffffffffffffffffffffffffffffffff163373ffffffffffffffffffffffffffffffffffffffff1614613cf2576040517f08c379a00000000000000000000000000000000000000000000000000000000081526004018080602001828103825260128152602001807f4552525f4e4f545f434f4e54524f4c4c4552000000000000000000000000000081525060200191505060405180910390fd5b80600660146101000a81548160ff0219169083151502179055506000600560016101000a81548160ff02191690831515021790555050565b3373ffffffffffffffffffffffffffffffffffffffff166000357fffffffff00000000000000000000000000000000000000000000000000000000167bffffffffffffffffffffffffffffffffffffffffffffffffffffffff191660003660405180806020018281038252848482818152602001925080828437600081840152601f19601f820116905080830192505050935050505060405180910390a2600560019054906101000a900460ff1615613e4b576040517f08c379a000000000000000000000000000000000000000000000000000000000815260040180806020018281038252600b8152602001807f4552525f5245454e54525900000000000000000000000000000000000000000081525060200191505060405180910390fd5b6001600560016101000a81548160ff021916908315150217905550600660009054906101000a900473ffffffffffffffffffffffffffffffffffffffff1673ffffffffffffffffffffffffffffffffffffffff163373ffffffffffffffffffffffffffffffffffffffff1614613f29576040517f08c379a00000000000000000000000000000000000000000000000000000000081526004018080602001828103825260128152602001807f4552525f4e4f545f434f4e54524f4c4c4552000000000000000000000000000081525060200191505060405180910390fd5b600860009054906101000a900460ff1615613fac576040517f08c379a00000000000000000000000000000000000000000000000000000000081526004018080602001828103825260108152602001807f4552525f49535f46494e414c495a45440000000000000000000000000000000081525060200191505060405180910390fd5b60026009805490501015614028576040517f08c379a000000000000000000000000000000000000000000000000000000000815260040180806020018281038252600e8152602001807f4552525f4d494e5f544f4b454e5300000000000000000000000000000000000081525060200191505060405180910390fd5b6001600860006101000a81548160ff0219169083151502179055506001600660146101000a81548160ff0219169083151502179055506140726064670de0b6b3a7640000026192b2565b614087336064670de0b6b3a764000002618d00565b6000600560016101000a81548160ff021916908315150217905550565b3373ffffffffffffffffffffffffffffffffffffffff166000357fffffffff00000000000000000000000000000000000000000000000000000000167bffffffffffffffffffffffffffffffffffffffffffffffffffffffff191660003660405180806020018281038252848482818152602001925080828437600081840152601f19601f820116905080830192505050935050505060405180910390a2600560019054906101000a900460ff16156141c5576040517f08c379a000000000000000000000000000000000000000000000000000000000815260040180806020018281038252600b8152602001807f4552525f5245454e54525900000000000000000000000000000000000000000081525060200191505060405180910390fd5b6001600560016101000a81548160ff021916908315150217905550600860009054906101000a900460ff16614262576040517f08c379a00000000000000000000000000000000000000000000000000000000081526004018080602001828103825260118152602001807f4552525f4e4f545f46494e414c495a454400000000000000000000000000000081525060200191505060405180910390fd5b600061426c6124b3565b9050600061427a85836192be565b905060008114156142f3576040517f08c379a000000000000000000000000000000000000000000000000000000000815260040180806020018281038252600f8152602001807f4552525f4d4154485f415050524f58000000000000000000000000000000000081525060200191505060405180910390fd5b60008090505b6009805490508110156145a85760006009828154811061431557fe5b9060005260206000200160009054906101000a900473ffffffffffffffffffffffffffffffffffffffff1690506000600a60008373ffffffffffffffffffffffffffffffffffffffff1673ffffffffffffffffffffffffffffffffffffffff16815260200190815260200160002060030154905060006143958583618b12565b9050600081141561440e576040517f08c379a000000000000000000000000000000000000000000000000000000000815260040180806020018281038252600f8152602001807f4552525f4d4154485f415050524f58000000000000000000000000000000000081525060200191505060405180910390fd5b87878581811061441a57fe5b90506020020135811115614496576040517f08c379a000000000000000000000000000000000000000000000000000000000815260040180806020018281038252600c8152602001807f4552525f4c494d49545f494e000000000000000000000000000000000000000081525060200191505060405180910390fd5b6144e2600a60008573ffffffffffffffffffffffffffffffffffffffff1673ffffffffffffffffffffffffffffffffffffffff168152602001908152602001600020600301548261909b565b600a60008573ffffffffffffffffffffffffffffffffffffffff1673ffffffffffffffffffffffffffffffffffffffff168152602001908152602001600020600301819055508273ffffffffffffffffffffffffffffffffffffffff163373ffffffffffffffffffffffffffffffffffffffff167f63982df10efd8dfaaaa0fcc7f50b2d93b7cba26ccc48adee2873220d485dc39a836040518082815260200191505060405180910390a3614598833383619123565b50505080806001019150506142f9565b506145b2856192b2565b6145bc3386618d00565b50506000600560016101000a81548160ff021916908315150217905550505050565b6000600c60009054906101000a900460ff1615614663576040517f08c379a00000000000000000000000000000000000000000000000000000000081526004018080602001828103825260178152602001807f4552525f414c52454144595f494e495449414c495a454400000000000000000081525060200191505060405180910390fd5b6146708686868686619477565b905095945050505050565b60008061468887866192be565b90506000614696878661909b565b905060006146a482896192be565b905060006146ba670de0b6b3a7640000856192be565b905060006146c8838361956c565b905060006146d6828e618b12565b905060006146e4828f618c54565b905060006147036146fd670de0b6b3a76400008a618c54565b8b618b12565b90506147208261471b670de0b6b3a764000084618c54565b6192be565b985088985050505050505050509695505050505050565b60003373ffffffffffffffffffffffffffffffffffffffff166000357fffffffff00000000000000000000000000000000000000000000000000000000167bffffffffffffffffffffffffffffffffffffffffffffffffffffffff191660003660405180806020018281038252848482818152602001925080828437600081840152601f19601f820116905080830192505050935050505060405180910390a2600560019054906101000a900460ff161561485a576040517f08c379a000000000000000000000000000000000000000000000000000000000815260040180806020018281038252600b8152602001807f4552525f5245454e54525900000000000000000000000000000000000000000081525060200191505060405180910390fd5b6001600560016101000a81548160ff021916908315150217905550600860009054906101000a900460ff166148f7576040517f08c379a00000000000000000000000000000000000000000000000000000000081526004018080602001828103825260118152602001807f4552525f4e4f545f46494e414c495a454400000000000000000000000000000081525060200191505060405180910390fd5b600a60008573ffffffffffffffffffffffffffffffffffffffff1673ffffffffffffffffffffffffffffffffffffffff16815260200190815260200160002060000160009054906101000a900460ff166149b9576040517f08c379a000000000000000000000000000000000000000000000000000000000815260040180806020018281038252600d8152602001807f4552525f4e4f545f424f554e440000000000000000000000000000000000000081525060200191505060405180910390fd5b614a17600a60008673ffffffffffffffffffffffffffffffffffffffff1673ffffffffffffffffffffffffffffffffffffffff168152602001908152602001600020600301546002670de0b6b3a764000081614a1157fe5b04618b12565b831115614a8c576040517f08c379a00000000000000000000000000000000000000000000000000000000081526004018080602001828103825260108152602001807f4552525f4d41585f494e5f524154494f0000000000000000000000000000000081525060200191505060405180910390fd5b6000600a60008673ffffffffffffffffffffffffffffffffffffffff1673ffffffffffffffffffffffffffffffffffffffff1681526020019081526020016000209050614aeb81600301548260020154600254600b548860075461655d565b915082821015614b63576040517f08c379a000000000000000000000000000000000000000000000000000000000815260040180806020018281038252600d8152602001807f4552525f4c494d49545f4f55540000000000000000000000000000000000000081525060200191505060405180910390fd5b614b7181600301548561909b565b81600301819055508473ffffffffffffffffffffffffffffffffffffffff163373ffffffffffffffffffffffffffffffffffffffff167f63982df10efd8dfaaaa0fcc7f50b2d93b7cba26ccc48adee2873220d485dc39a866040518082815260200191505060405180910390a3614be7826192b2565b614bf13383618d00565b614bfc853386619123565b819150506000600560016101000a81548160ff0219169083151502179055509392505050565b600080600160003373ffffffffffffffffffffffffffffffffffffffff1673ffffffffffffffffffffffffffffffffffffffff16815260200190815260200160002060008573ffffffffffffffffffffffffffffffffffffffff1673ffffffffffffffffffffffffffffffffffffffff16815260200190815260200160002054905080831115614d33576000600160003373ffffffffffffffffffffffffffffffffffffffff1673ffffffffffffffffffffffffffffffffffffffff16815260200190815260200160002060008673ffffffffffffffffffffffffffffffffffffffff1673ffffffffffffffffffffffffffffffffffffffff16815260200190815260200160002081905550614dbe565b614d3d8184618c54565b600160003373ffffffffffffffffffffffffffffffffffffffff1673ffffffffffffffffffffffffffffffffffffffff16815260200190815260200160002060008673ffffffffffffffffffffffffffffffffffffffff1673ffffffffffffffffffffffffffffffffffffffff168152602001908152602001600020819055505b8373ffffffffffffffffffffffffffffffffffffffff163373ffffffffffffffffffffffffffffffffffffffff167f8c5be1e5ebec7d5bd14f71427d1e84f3dd0314c0f7b2291e5b200ac8c7c3b925600160003373ffffffffffffffffffffffffffffffffffffffff1673ffffffffffffffffffffffffffffffffffffffff16815260200190815260200160002060008873ffffffffffffffffffffffffffffffffffffffff1673ffffffffffffffffffffffffffffffffffffffff168152602001908152602001600020546040518082815260200191505060405180910390a3600191505092915050565b60003373ffffffffffffffffffffffffffffffffffffffff166000357fffffffff00000000000000000000000000000000000000000000000000000000167bffffffffffffffffffffffffffffffffffffffffffffffffffffffff191660003660405180806020018281038252848482818152602001925080828437600081840152601f19601f820116905080830192505050935050505060405180910390a2600560019054906101000a900460ff1615614fcd576040517f08c379a000000000000000000000000000000000000000000000000000000000815260040180806020018281038252600b8152602001807f4552525f5245454e54525900000000000000000000000000000000000000000081525060200191505060405180910390fd5b6001600560016101000a81548160ff021916908315150217905550600860009054906101000a900460ff1661506a576040517f08c379a00000000000000000000000000000000000000000000000000000000081526004018080602001828103825260118152602001807f4552525f4e4f545f46494e414c495a454400000000000000000000000000000081525060200191505060405180910390fd5b600a60008573ffffffffffffffffffffffffffffffffffffffff1673ffffffffffffffffffffffffffffffffffffffff16815260200190815260200160002060000160009054906101000a900460ff1661512c576040517f08c379a000000000000000000000000000000000000000000000000000000000815260040180806020018281038252600d8152602001807f4552525f4e4f545f424f554e440000000000000000000000000000000000000081525060200191505060405180910390fd5b6000600a60008673ffffffffffffffffffffffffffffffffffffffff1673ffffffffffffffffffffffffffffffffffffffff168152602001908152602001600020905061518b81600301548260020154600254600b548860075461467b565b91506000821415615204576040517f08c379a000000000000000000000000000000000000000000000000000000000815260040180806020018281038252600f8152602001807f4552525f4d4154485f415050524f58000000000000000000000000000000000081525060200191505060405180910390fd5b8282111561527a576040517f08c379a000000000000000000000000000000000000000000000000000000000815260040180806020018281038252600c8152602001807f4552525f4c494d49545f494e000000000000000000000000000000000000000081525060200191505060405180910390fd5b6152d8600a60008773ffffffffffffffffffffffffffffffffffffffff1673ffffffffffffffffffffffffffffffffffffffff168152602001908152602001600020600301546002670de0b6b3a7640000816152d257fe5b04618b12565b82111561534d576040517f08c379a00000000000000000000000000000000000000000000000000000000081526004018080602001828103825260108152602001807f4552525f4d41585f494e5f524154494f0000000000000000000000000000000081525060200191505060405180910390fd5b61535b81600301548361909b565b81600301819055508473ffffffffffffffffffffffffffffffffffffffff163373ffffffffffffffffffffffffffffffffffffffff167f63982df10efd8dfaaaa0fcc7f50b2d93b7cba26ccc48adee2873220d485dc39a846040518082815260200191505060405180910390a36153d1846192b2565b6153db3385618d00565b6153e6853384619123565b819150506000600560016101000a81548160ff0219169083151502179055509392505050565b60008060008373ffffffffffffffffffffffffffffffffffffffff1673ffffffffffffffffffffffffffffffffffffffff168152602001908152602001600020549050919050565b620f4240670de0b6b3a76400008161546857fe5b0481565b6000803373ffffffffffffffffffffffffffffffffffffffff166000357fffffffff00000000000000000000000000000000000000000000000000000000167bffffffffffffffffffffffffffffffffffffffffffffffffffffffff191660003660405180806020018281038252848482818152602001925080828437600081840152601f19601f820116905080830192505050935050505060405180910390a2600560019054906101000a900460ff1615615590576040517f08c379a000000000000000000000000000000000000000000000000000000000815260040180806020018281038252600b8152602001807f4552525f5245454e54525900000000000000000000000000000000000000000081525060200191505060405180910390fd5b6001600560016101000a81548160ff021916908315150217905550600a60008873ffffffffffffffffffffffffffffffffffffffff1673ffffffffffffffffffffffffffffffffffffffff16815260200190815260200160002060000160009054906101000a900460ff1661566d576040517f08c379a000000000000000000000000000000000000000000000000000000000815260040180806020018281038252600d8152602001807f4552525f4e4f545f424f554e440000000000000000000000000000000000000081525060200191505060405180910390fd5b600a60008673ffffffffffffffffffffffffffffffffffffffff1673ffffffffffffffffffffffffffffffffffffffff16815260200190815260200160002060000160009054906101000a900460ff1661572f576040517f08c379a000000000000000000000000000000000000000000000000000000000815260040180806020018281038252600d8152602001807f4552525f4e4f545f424f554e440000000000000000000000000000000000000081525060200191505060405180910390fd5b600660149054906101000a900460ff166157b1576040517f08c379a00000000000000000000000000000000000000000000000000000000081526004018080602001828103825260138152602001807f4552525f535741505f4e4f545f5055424c49430000000000000000000000000081525060200191505060405180910390fd5b6000600a60008973ffffffffffffffffffffffffffffffffffffffff1673ffffffffffffffffffffffffffffffffffffffff16815260200190815260200160002090506000600a60008873ffffffffffffffffffffffffffffffffffffffff1673ffffffffffffffffffffffffffffffffffffffff168152602001908152602001600020905061585a816003015460016003670de0b6b3a76400008161585357fe5b0401618b12565b8611156158cf576040517f08c379a00000000000000000000000000000000000000000000000000000000081526004018080602001828103825260118152602001807f4552525f4d41585f4f55545f524154494f00000000000000000000000000000081525060200191505060405180910390fd5b60006158f08360030154846002015484600301548560020154600754616fae565b905085811115615968576040517f08c379a00000000000000000000000000000000000000000000000000000000081526004018080602001828103825260138152602001807f4552525f4241445f4c494d49545f50524943450000000000000000000000000081525060200191505060405180910390fd5b61598883600301548460020154846003015485600201548b600754618a74565b945088851115615a00576040517f08c379a000000000000000000000000000000000000000000000000000000000815260040180806020018281038252600c8152602001807f4552525f4c494d49545f494e000000000000000000000000000000000000000081525060200191505060405180910390fd5b615a0e83600301548661909b565b8360030181905550615a24826003015488618c54565b8260030181905550615a4b8360030154846002015484600301548560020154600754616fae565b935080841015615ac3576040517f08c379a000000000000000000000000000000000000000000000000000000000815260040180806020018281038252600f8152602001807f4552525f4d4154485f415050524f58000000000000000000000000000000000081525060200191505060405180910390fd5b85841115615b39576040517f08c379a000000000000000000000000000000000000000000000000000000000815260040180806020018281038252600f8152602001807f4552525f4c494d49545f5052494345000000000000000000000000000000000081525060200191505060405180910390fd5b615b4385886192be565b811115615bb8576040517f08c379a000000000000000000000000000000000000000000000000000000000815260040180806020018281038252600f8152602001807f4552525f4d4154485f415050524f58000000000000000000000000000000000081525060200191505060405180910390fd5b8773ffffffffffffffffffffffffffffffffffffffff168a73ffffffffffffffffffffffffffffffffffffffff163373ffffffffffffffffffffffffffffffffffffffff167f908fb5ee8f16c6bc9bc3690973819f32a4d4b10188134543c88706e0e1d43378888b604051808381526020018281526020019250505060405180910390a4615c478a3387619123565b615c52883389618d0e565b8484945094505050506000600560016101000a81548160ff0219169083151502179055509550959350505050565b6000803373ffffffffffffffffffffffffffffffffffffffff166000357fffffffff00000000000000000000000000000000000000000000000000000000167bffffffffffffffffffffffffffffffffffffffffffffffffffffffff191660003660405180806020018281038252848482818152602001925080828437600081840152601f19601f820116905080830192505050935050505060405180910390a2600560019054906101000a900460ff1615615da4576040517f08c379a000000000000000000000000000000000000000000000000000000000815260040180806020018281038252600b8152602001807f4552525f5245454e54525900000000000000000000000000000000000000000081525060200191505060405180910390fd5b6001600560016101000a81548160ff021916908315150217905550600a60008873ffffffffffffffffffffffffffffffffffffffff1673ffffffffffffffffffffffffffffffffffffffff16815260200190815260200160002060000160009054906101000a900460ff16615e81576040517f08c379a000000000000000000000000000000000000000000000000000000000815260040180806020018281038252600d8152602001807f4552525f4e4f545f424f554e440000000000000000000000000000000000000081525060200191505060405180910390fd5b600a60008673ffffffffffffffffffffffffffffffffffffffff1673ffffffffffffffffffffffffffffffffffffffff16815260200190815260200160002060000160009054906101000a900460ff16615f43576040517f08c379a000000000000000000000000000000000000000000000000000000000815260040180806020018281038252600d8152602001807f4552525f4e4f545f424f554e440000000000000000000000000000000000000081525060200191505060405180910390fd5b600660149054906101000a900460ff16615fc5576040517f08c379a00000000000000000000000000000000000000000000000000000000081526004018080602001828103825260138152602001807f4552525f535741505f4e4f545f5055424c49430000000000000000000000000081525060200191505060405180910390fd5b6000600a60008973ffffffffffffffffffffffffffffffffffffffff1673ffffffffffffffffffffffffffffffffffffffff16815260200190815260200160002090506000600a60008873ffffffffffffffffffffffffffffffffffffffff1673ffffffffffffffffffffffffffffffffffffffff168152602001908152602001600020905061606b82600301546002670de0b6b3a76400008161606557fe5b04618b12565b8811156160e0576040517f08c379a00000000000000000000000000000000000000000000000000000000081526004018080602001828103825260108152602001807f4552525f4d41585f494e5f524154494f0000000000000000000000000000000081525060200191505060405180910390fd5b60006161018360030154846002015484600301548560020154600754616fae565b905085811115616179576040517f08c379a00000000000000000000000000000000000000000000000000000000081526004018080602001828103825260138152602001807f4552525f4241445f4c494d49545f50524943450000000000000000000000000081525060200191505060405180910390fd5b61619983600301548460020154846003015485600201548d6007546175c7565b945086851015616211576040517f08c379a000000000000000000000000000000000000000000000000000000000815260040180806020018281038252600d8152602001807f4552525f4c494d49545f4f55540000000000000000000000000000000000000081525060200191505060405180910390fd5b61621f83600301548a61909b565b8360030181905550616235826003015486618c54565b826003018190555061625c8360030154846002015484600301548560020154600754616fae565b9350808410156162d4576040517f08c379a000000000000000000000000000000000000000000000000000000000815260040180806020018281038252600f8152602001807f4552525f4d4154485f415050524f58000000000000000000000000000000000081525060200191505060405180910390fd5b8584111561634a576040517f08c379a000000000000000000000000000000000000000000000000000000000815260040180806020018281038252600f8152602001807f4552525f4c494d49545f5052494345000000000000000000000000000000000081525060200191505060405180910390fd5b61635489866192be565b8111156163c9576040517f08c379a000000000000000000000000000000000000000000000000000000000815260040180806020018281038252600f8152602001807f4552525f4d4154485f415050524f58000000000000000000000000000000000081525060200191505060405180910390fd5b8773ffffffffffffffffffffffffffffffffffffffff168a73ffffffffffffffffffffffffffffffffffffffff163373ffffffffffffffffffffffffffffffffffffffff167f908fb5ee8f16c6bc9bc3690973819f32a4d4b10188134543c88706e0e1d433788c89604051808381526020018281526020019250505060405180910390a46164588a338b619123565b616463883387618d0e565b8484945094505050506000600560016101000a81548160ff0219169083151502179055509550959350505050565b60008061649e87866192be565b905060006164b4670de0b6b3a764000083618c54565b905060006164c28286618b12565b905060006164e1876164dc670de0b6b3a764000085618c54565b6192be565b905060006164ef8c83618c54565b905060006164fd828e6192be565b9050600061650b828861956c565b90506000616519828e618b12565b905060006165278e83618c54565b905061654581616540670de0b6b3a76400006000618c54565b6192be565b99508999505050505050505050509695505050505050565b60008061656a87866192be565b90506000616589616583670de0b6b3a764000084618c54565b85618b12565b905060006165a8866165a3670de0b6b3a764000085618c54565b618b12565b905060006165b68b8361909b565b905060006165c4828d6192be565b905060006165d2828761956c565b905060006165e0828d618b12565b90506165ec818d618c54565b9750879750505050505050509695505050505050565b64e8d4a51000670de0b6b3a76400008161661857fe5b0481565b60008061662987866192be565b9050600061664985616644670de0b6b3a76400006000618c54565b618b12565b905060006166578883618c54565b90506000616665828a6192be565b905060006166848261667f670de0b6b3a7640000886192be565b61956c565b90506000616692828e618b12565b905060006166a08e83618c54565b905060006166bf6166b9670de0b6b3a76400008a618c54565b8b618b12565b90506166dc826166d7670de0b6b3a764000084618c54565b618b12565b985088985050505050505050509695505050505050565b3373ffffffffffffffffffffffffffffffffffffffff166000357fffffffff00000000000000000000000000000000000000000000000000000000167bffffffffffffffffffffffffffffffffffffffffffffffffffffffff191660003660405180806020018281038252848482818152602001925080828437600081840152601f19601f820116905080830192505050935050505060405180910390a2600560019054906101000a900460ff1615616814576040517f08c379a000000000000000000000000000000000000000000000000000000000815260040180806020018281038252600b8152602001807f4552525f5245454e54525900000000000000000000000000000000000000000081525060200191505060405180910390fd5b6001600560016101000a81548160ff021916908315150217905550600a60008273ffffffffffffffffffffffffffffffffffffffff1673ffffffffffffffffffffffffffffffffffffffff16815260200190815260200160002060000160009054906101000a900460ff166168f1576040517f08c379a000000000000000000000000000000000000000000000000000000000815260040180806020018281038252600d8152602001807f4552525f4e4f545f424f554e440000000000000000000000000000000000000081525060200191505060405180910390fd5b8073ffffffffffffffffffffffffffffffffffffffff166370a08231306040518263ffffffff167c0100000000000000000000000000000000000000000000000000000000028152600401808273ffffffffffffffffffffffffffffffffffffffff1673ffffffffffffffffffffffffffffffffffffffff16815260200191505060206040518083038186803b15801561698a57600080fd5b505afa15801561699e573d6000803e3d6000fd5b505050506040513d60208110156169b457600080fd5b8101908080519060200190929190505050600a60008373ffffffffffffffffffffffffffffffffffffffff1673ffffffffffffffffffffffffffffffffffffffff168152602001908152602001600020600301819055506000600560016101000a81548160ff02191690831515021790555050565b6000600860009054906101000a900460ff16905090565b3373ffffffffffffffffffffffffffffffffffffffff166000357fffffffff00000000000000000000000000000000000000000000000000000000167bffffffffffffffffffffffffffffffffffffffffffffffffffffffff191660003660405180806020018281038252848482818152602001925080828437600081840152601f19601f820116905080830192505050935050505060405180910390a2600560019054906101000a900460ff1615616b61576040517f08c379a000000000000000000000000000000000000000000000000000000000815260040180806020018281038252600b8152602001807f4552525f5245454e54525900000000000000000000000000000000000000000081525060200191505060405180910390fd5b6001600560016101000a81548160ff021916908315150217905550600660009054906101000a900473ffffffffffffffffffffffffffffffffffffffff1673ffffffffffffffffffffffffffffffffffffffff163373ffffffffffffffffffffffffffffffffffffffff1614616c3f576040517f08c379a00000000000000000000000000000000000000000000000000000000081526004018080602001828103825260128152602001807f4552525f4e4f545f434f4e54524f4c4c4552000000000000000000000000000081525060200191505060405180910390fd5b80600660006101000a81548173ffffffffffffffffffffffffffffffffffffffff021916908373ffffffffffffffffffffffffffffffffffffffff1602179055506000600560016101000a81548160ff02191690831515021790555050565b6000600560019054906101000a900460ff1615616d23576040517f08c379a000000000000000000000000000000000000000000000000000000000815260040180806020018281038252600b8152602001807f4552525f5245454e54525900000000000000000000000000000000000000000081525060200191505060405180910390fd5b600b54905090565b6064670de0b6b3a76400000281565b6000600560019054906101000a900460ff1615616dbf576040517f08c379a000000000000000000000000000000000000000000000000000000000815260040180806020018281038252600b8152602001807f4552525f5245454e54525900000000000000000000000000000000000000000081525060200191505060405180910390fd5b600a60008373ffffffffffffffffffffffffffffffffffffffff1673ffffffffffffffffffffffffffffffffffffffff16815260200190815260200160002060000160009054906101000a900460ff16616e81576040517f08c379a000000000000000000000000000000000000000000000000000000000815260040180806020018281038252600d8152602001807f4552525f4e4f545f424f554e440000000000000000000000000000000000000081525060200191505060405180910390fd5b600a60008373ffffffffffffffffffffffffffffffffffffffff1673ffffffffffffffffffffffffffffffffffffffff168152602001908152602001600020600201549050919050565b606060048054600181600116156101000203166002900480601f016020809104026020016040519081016040528092919081815260200182805460018160011615610100020316600290048015616f635780601f10616f3857610100808354040283529160200191616f63565b820191906000526020600020905b815481529060010190602001808311616f4657829003601f168201915b5050505050905090565b60016003670de0b6b3a764000081616f8157fe5b040181565b60007f42524f4e5a450000000000000000000000000000000000000000000000000000905090565b600080616fbb87876192be565b90506000616fc986866192be565b90506000616fd783836192be565b90506000616ffe670de0b6b3a7640000616ff9670de0b6b3a764000089618c54565b6192be565b905061700a8282618b12565b94508494505050505095945050505050565b6000617029338484618e69565b6001905092915050565b3373ffffffffffffffffffffffffffffffffffffffff166000357fffffffff00000000000000000000000000000000000000000000000000000000167bffffffffffffffffffffffffffffffffffffffffffffffffffffffff191660003660405180806020018281038252848482818152602001925080828437600081840152601f19601f820116905080830192505050935050505060405180910390a2600560019054906101000a900460ff1615617154576040517f08c379a000000000000000000000000000000000000000000000000000000000815260040180806020018281038252600b8152602001807f4552525f5245454e54525900000000000000000000000000000000000000000081525060200191505060405180910390fd5b6001600560016101000a81548160ff021916908315150217905550600860009054906101000a900460ff166171f1576040517f08c379a00000000000000000000000000000000000000000000000000000000081526004018080602001828103825260118152602001807f4552525f4e4f545f46494e414c495a454400000000000000000000000000000081525060200191505060405180910390fd5b60006171fb6124b3565b9050600061720a856000618b12565b905060006172188683618c54565b9050600061722682856192be565b9050600081141561729f576040517f08c379a000000000000000000000000000000000000000000000000000000000815260040180806020018281038252600f8152602001807f4552525f4d4154485f415050524f58000000000000000000000000000000000081525060200191505060405180910390fd5b6172a93388618ce6565b6172d5600560029054906101000a900473ffffffffffffffffffffffffffffffffffffffff1684618d00565b6172de82618cf4565b60008090505b6009805490508110156175935760006009828154811061730057fe5b9060005260206000200160009054906101000a900473ffffffffffffffffffffffffffffffffffffffff1690506000600a60008373ffffffffffffffffffffffffffffffffffffffff1673ffffffffffffffffffffffffffffffffffffffff16815260200190815260200160002060030154905060006173808583618b12565b905060008114156173f9576040517f08c379a000000000000000000000000000000000000000000000000000000000815260040180806020018281038252600f8152602001807f4552525f4d4154485f415050524f58000000000000000000000000000000000081525060200191505060405180910390fd5b89898581811061740557fe5b90506020020135811015617481576040517f08c379a000000000000000000000000000000000000000000000000000000000815260040180806020018281038252600d8152602001807f4552525f4c494d49545f4f55540000000000000000000000000000000000000081525060200191505060405180910390fd5b6174cd600a60008573ffffffffffffffffffffffffffffffffffffffff1673ffffffffffffffffffffffffffffffffffffffff1681526020019081526020016000206003015482618c54565b600a60008573ffffffffffffffffffffffffffffffffffffffff1673ffffffffffffffffffffffffffffffffffffffff168152602001908152602001600020600301819055508273ffffffffffffffffffffffffffffffffffffffff163373ffffffffffffffffffffffffffffffffffffffff167fe74c91552b64c2e2e7bd255639e004e693bd3e1d01cc33e65610b86afcc1ffed836040518082815260200191505060405180910390a3617583833383618d0e565b50505080806001019150506172e4565b50505050506000600560016101000a81548160ff021916908315150217905550505050565b600881565b600281565b600181565b6000806175d487866192be565b905060006175ea670de0b6b3a764000085618c54565b90506175f68582618b12565b9050600061760d8a6176088c8561909b565b6192be565b9050600061761b828561956c565b90506000617631670de0b6b3a764000083618c54565b905061763d8a82618b12565b955085955050505050509695505050505050565b600a670de0b6b3a76400008161766357fe5b0481565b6001670de0b6b3a76400006002020381565b6060600560019054906101000a900460ff16156176fe576040517f08c379a000000000000000000000000000000000000000000000000000000000815260040180806020018281038252600b8152602001807f4552525f5245454e54525900000000000000000000000000000000000000000081525060200191505060405180910390fd5b600860009054906101000a900460ff16617780576040517f08c379a00000000000000000000000000000000000000000000000000000000081526004018080602001828103825260118152602001807f4552525f4e4f545f46494e414c495a454400000000000000000000000000000081525060200191505060405180910390fd5b600980548060200260200160405190810160405280929190818152602001828054801561780257602002820191906000526020600020905b8160009054906101000a900473ffffffffffffffffffffffffffffffffffffffff1673ffffffffffffffffffffffffffffffffffffffff16815260200190600101908083116177b8575b5050505050905090565b670de0b6b3a764000081565b600081565b6060600560019054906101000a900460ff16156178a2576040517f08c379a000000000000000000000000000000000000000000000000000000000815260040180806020018281038252600b8152602001807f4552525f5245454e54525900000000000000000000000000000000000000000081525060200191505060405180910390fd5b600980548060200260200160405190810160405280929190818152602001828054801561792457602002820191906000526020600020905b8160009054906101000a900473ffffffffffffffffffffffffffffffffffffffff1673ffffffffffffffffffffffffffffffffffffffff16815260200190600101908083116178da575b5050505050905090565b6000600980549050905090565b3373ffffffffffffffffffffffffffffffffffffffff166000357fffffffff00000000000000000000000000000000000000000000000000000000167bffffffffffffffffffffffffffffffffffffffffffffffffffffffff191660003660405180806020018281038252848482818152602001925080828437600081840152601f19601f820116905080830192505050935050505060405180910390a2600560019054906101000a900460ff1615617a5c576040517f08c379a000000000000000000000000000000000000000000000000000000000815260040180806020018281038252600b8152602001807f4552525f5245454e54525900000000000000000000000000000000000000000081525060200191505060405180910390fd5b6001600560016101000a81548160ff021916908315150217905550600660009054906101000a900473ffffffffffffffffffffffffffffffffffffffff1673ffffffffffffffffffffffffffffffffffffffff163373ffffffffffffffffffffffffffffffffffffffff1614617b3a576040517f08c379a00000000000000000000000000000000000000000000000000000000081526004018080602001828103825260128152602001807f4552525f4e4f545f434f4e54524f4c4c4552000000000000000000000000000081525060200191505060405180910390fd5b600a60008273ffffffffffffffffffffffffffffffffffffffff1673ffffffffffffffffffffffffffffffffffffffff16815260200190815260200160002060000160009054906101000a900460ff16617bfc576040517f08c379a000000000000000000000000000000000000000000000000000000000815260040180806020018281038252600d8152602001807f4552525f4e4f545f424f554e440000000000000000000000000000000000000081525060200191505060405180910390fd5b600860009054906101000a900460ff1615617c7f576040517f08c379a00000000000000000000000000000000000000000000000000000000081526004018080602001828103825260108152602001807f4552525f49535f46494e414c495a45440000000000000000000000000000000081525060200191505060405180910390fd5b6000600a60008373ffffffffffffffffffffffffffffffffffffffff1673ffffffffffffffffffffffffffffffffffffffff1681526020019081526020016000206003015490506000617cd3826000618b12565b9050617d23600b54600a60008673ffffffffffffffffffffffffffffffffffffffff1673ffffffffffffffffffffffffffffffffffffffff16815260200190815260200160002060020154618c54565b600b819055506000600a60008573ffffffffffffffffffffffffffffffffffffffff1673ffffffffffffffffffffffffffffffffffffffff1681526020019081526020016000206001015490506000600160098054905003905060098181548110617d8a57fe5b9060005260206000200160009054906101000a900473ffffffffffffffffffffffffffffffffffffffff1660098381548110617dc257fe5b9060005260206000200160006101000a81548173ffffffffffffffffffffffffffffffffffffffff021916908373ffffffffffffffffffffffffffffffffffffffff16021790555081600a600060098581548110617e1c57fe5b9060005260206000200160009054906101000a900473ffffffffffffffffffffffffffffffffffffffff1673ffffffffffffffffffffffffffffffffffffffff1673ffffffffffffffffffffffffffffffffffffffff168152602001908152602001600020600101819055506009805480617e9357fe5b6001900381819060005260206000200160006101000a81549073ffffffffffffffffffffffffffffffffffffffff02191690559055604051806080016040528060001515815260200160008152602001600081526020016000815250600a60008773ffffffffffffffffffffffffffffffffffffffff1673ffffffffffffffffffffffffffffffffffffffff16815260200190815260200160002060008201518160000160006101000a81548160ff021916908315150217905550602082015181600101556040820151816002015560608201518160030155905050617f838533617f7e8787618c54565b618d0e565b617fb085600560029054906101000a900473ffffffffffffffffffffffffffffffffffffffff1685618d0e565b505050506000600560016101000a81548160ff02191690831515021790555050565b6000600560019054906101000a900460ff1615618057576040517f08c379a000000000000000000000000000000000000000000000000000000000815260040180806020018281038252600b8152602001807f4552525f5245454e54525900000000000000000000000000000000000000000081525060200191505060405180910390fd5b600754905090565b60006180e7600160003373ffffffffffffffffffffffffffffffffffffffff1673ffffffffffffffffffffffffffffffffffffffff16815260200190815260200160002060008573ffffffffffffffffffffffffffffffffffffffff1673ffffffffffffffffffffffffffffffffffffffff168152602001908152602001600020548361909b565b600160003373ffffffffffffffffffffffffffffffffffffffff1673ffffffffffffffffffffffffffffffffffffffff16815260200190815260200160002060008573ffffffffffffffffffffffffffffffffffffffff1673ffffffffffffffffffffffffffffffffffffffff168152602001908152602001600020819055508273ffffffffffffffffffffffffffffffffffffffff163373ffffffffffffffffffffffffffffffffffffffff167f8c5be1e5ebec7d5bd14f71427d1e84f3dd0314c0f7b2291e5b200ac8c7c3b925600160003373ffffffffffffffffffffffffffffffffffffffff1673ffffffffffffffffffffffffffffffffffffffff16815260200190815260200160002060008773ffffffffffffffffffffffffffffffffffffffff1673ffffffffffffffffffffffffffffffffffffffff168152602001908152602001600020546040518082815260200191505060405180910390a36001905092915050565b6000600160008473ffffffffffffffffffffffffffffffffffffffff1673ffffffffffffffffffffffffffffffffffffffff16815260200190815260200160002060008373ffffffffffffffffffffffffffffffffffffffff1673ffffffffffffffffffffffffffffffffffffffff16815260200190815260200160002054905092915050565b6032670de0b6b3a76400000281565b3373ffffffffffffffffffffffffffffffffffffffff166000357fffffffff00000000000000000000000000000000000000000000000000000000167bffffffffffffffffffffffffffffffffffffffffffffffffffffffff191660003660405180806020018281038252848482818152602001925080828437600081840152601f19601f820116905080830192505050935050505060405180910390a2600660009054906101000a900473ffffffffffffffffffffffffffffffffffffffff1673ffffffffffffffffffffffffffffffffffffffff163373ffffffffffffffffffffffffffffffffffffffff1614618449576040517f08c379a00000000000000000000000000000000000000000000000000000000081526004018080602001828103825260128152602001807f4552525f4e4f545f434f4e54524f4c4c4552000000000000000000000000000081525060200191505060405180910390fd5b600a60008473ffffffffffffffffffffffffffffffffffffffff1673ffffffffffffffffffffffffffffffffffffffff16815260200190815260200160002060000160009054906101000a900460ff161561850c576040517f08c379a000000000000000000000000000000000000000000000000000000000815260040180806020018281038252600c8152602001807f4552525f49535f424f554e44000000000000000000000000000000000000000081525060200191505060405180910390fd5b600860009054906101000a900460ff161561858f576040517f08c379a00000000000000000000000000000000000000000000000000000000081526004018080602001828103825260108152602001807f4552525f49535f46494e414c495a45440000000000000000000000000000000081525060200191505060405180910390fd5b60086009805490501061860a576040517f08c379a000000000000000000000000000000000000000000000000000000000815260040180806020018281038252600e8152602001807f4552525f4d41585f544f4b454e5300000000000000000000000000000000000081525060200191505060405180910390fd5b60405180608001604052806001151581526020016009805490508152602001600081526020016000815250600a60008573ffffffffffffffffffffffffffffffffffffffff1673ffffffffffffffffffffffffffffffffffffffff16815260200190815260200160002060008201518160000160006101000a81548160ff02191690831515021790555060208201518160010155604082015181600201556060820151816003015590505060098390806001815401808255809150509060018203906000526020600020016000909192909190916101000a81548173ffffffffffffffffffffffffffffffffffffffff021916908373ffffffffffffffffffffffffffffffffffffffff16021790555050618726838383612dd5565b505050565b6002670de0b6b3a76400008161873d57fe5b0481565b6000600560019054906101000a900460ff16156187c6576040517f08c379a000000000000000000000000000000000000000000000000000000000815260040180806020018281038252600b8152602001807f4552525f5245454e54525900000000000000000000000000000000000000000081525060200191505060405180910390fd5b600a60008373ffffffffffffffffffffffffffffffffffffffff1673ffffffffffffffffffffffffffffffffffffffff16815260200190815260200160002060000160009054906101000a900460ff16618888576040517f08c379a000000000000000000000000000000000000000000000000000000000815260040180806020018281038252600d8152602001807f4552525f4e4f545f424f554e440000000000000000000000000000000000000081525060200191505060405180910390fd5b6000600a60008473ffffffffffffffffffffffffffffffffffffffff1673ffffffffffffffffffffffffffffffffffffffff1681526020019081526020016000206002015490506188db81600b546192be565b915050919050565b6000600560019054906101000a900460ff1615618968576040517f08c379a000000000000000000000000000000000000000000000000000000000815260040180806020018281038252600b8152602001807f4552525f5245454e54525900000000000000000000000000000000000000000081525060200191505060405180910390fd5b600a60008373ffffffffffffffffffffffffffffffffffffffff1673ffffffffffffffffffffffffffffffffffffffff16815260200190815260200160002060000160009054906101000a900460ff16618a2a576040517f08c379a000000000000000000000000000000000000000000000000000000000815260040180806020018281038252600d8152602001807f4552525f4e4f545f424f554e440000000000000000000000000000000000000081525060200191505060405180910390fd5b600a60008373ffffffffffffffffffffffffffffffffffffffff1673ffffffffffffffffffffffffffffffffffffffff168152602001908152602001600020600301549050919050565b600080618a8185886192be565b90506000618a8f8786618c54565b90506000618a9d88836192be565b90506000618aab828561956c565b9050618abf81670de0b6b3a7640000618c54565b9050618ad3670de0b6b3a764000087618c54565b9450618ae8618ae28c83618b12565b866192be565b9450849450505050509695505050505050565b6000600660149054906101000a900460ff16905090565b60008082840290506000841480618b31575082848281618b2e57fe5b04145b618ba3576040517f08c379a00000000000000000000000000000000000000000000000000000000081526004018080602001828103825260108152602001807f4552525f4d554c5f4f564552464c4f570000000000000000000000000000000081525060200191505060405180910390fd5b60006002670de0b6b3a764000081618bb757fe5b048201905081811015618c32576040517f08c379a00000000000000000000000000000000000000000000000000000000081526004018080602001828103825260108152602001807f4552525f4d554c5f4f564552464c4f570000000000000000000000000000000081525060200191505060405180910390fd5b6000670de0b6b3a76400008281618c4557fe5b04905080935050505092915050565b6000806000618c6385856196ea565b915091508015618cdb576040517f08c379a00000000000000000000000000000000000000000000000000000000081526004018080602001828103825260118152602001807f4552525f5355425f554e444552464c4f5700000000000000000000000000000081525060200191505060405180910390fd5b819250505092915050565b618cf08282619713565b5050565b618cfd81619722565b50565b618d0a82826198db565b5050565b60008373ffffffffffffffffffffffffffffffffffffffff1663a9059cbb84846040518363ffffffff167c0100000000000000000000000000000000000000000000000000000000028152600401808373ffffffffffffffffffffffffffffffffffffffff1673ffffffffffffffffffffffffffffffffffffffff16815260200182815260200192505050602060405180830381600087803b158015618db357600080fd5b505af1158015618dc7573d6000803e3d6000fd5b505050506040513d6020811015618ddd57600080fd5b8101908080519060200190929190505050905080618e63576040517f08c379a000000000000000000000000000000000000000000000000000000000815260040180806020018281038252600f8152602001807f4552525f45524332305f46414c5345000000000000000000000000000000000081525060200191505060405180910390fd5b50505050565b806000808573ffffffffffffffffffffffffffffffffffffffff1673ffffffffffffffffffffffffffffffffffffffff168152602001908152602001600020541015618f1d576040517f08c379a00000000000000000000000000000000000000000000000000000000081526004018080602001828103825260148152602001807f4552525f494e53554646494349454e545f42414c00000000000000000000000081525060200191505060405180910390fd5b618f656000808573ffffffffffffffffffffffffffffffffffffffff1673ffffffffffffffffffffffffffffffffffffffff1681526020019081526020016000205482618c54565b6000808573ffffffffffffffffffffffffffffffffffffffff1673ffffffffffffffffffffffffffffffffffffffff16815260200190815260200160002081905550618fef6000808473ffffffffffffffffffffffffffffffffffffffff1673ffffffffffffffffffffffffffffffffffffffff168152602001908152602001600020548261909b565b6000808473ffffffffffffffffffffffffffffffffffffffff1673ffffffffffffffffffffffffffffffffffffffff168152602001908152602001600020819055508173ffffffffffffffffffffffffffffffffffffffff168373ffffffffffffffffffffffffffffffffffffffff167fddf252ad1be2c89b69c2b068fc378daa952ba7f163c4a11628f55a4df523b3ef836040518082815260200191505060405180910390a3505050565b600080828401905083811015619119576040517f08c379a00000000000000000000000000000000000000000000000000000000081526004018080602001828103825260108152602001807f4552525f4144445f4f564552464c4f570000000000000000000000000000000081525060200191505060405180910390fd5b8091505092915050565b60008373ffffffffffffffffffffffffffffffffffffffff166323b872dd8430856040518463ffffffff167c0100000000000000000000000000000000000000000000000000000000028152600401808473ffffffffffffffffffffffffffffffffffffffff1673ffffffffffffffffffffffffffffffffffffffff1681526020018373ffffffffffffffffffffffffffffffffffffffff1673ffffffffffffffffffffffffffffffffffffffff1681526020018281526020019350505050602060405180830381600087803b1580156191fc57600080fd5b505af1158015619210573d6000803e3d6000fd5b505050506040513d602081101561922657600080fd5b81019080805190602001909291905050509050806192ac576040517f08c379a000000000000000000000000000000000000000000000000000000000815260040180806020018281038252600f8152602001807f4552525f45524332305f46414c5345000000000000000000000000000000000081525060200191505060405180910390fd5b50505050565b6192bb816198ea565b50565b600080821415619336576040517f08c379a000000000000000000000000000000000000000000000000000000000815260040180806020018281038252600c8152602001807f4552525f4449565f5a45524f000000000000000000000000000000000000000081525060200191505060405180910390fd5b6000670de0b6b3a76400008402905060008414806193645750670de0b6b3a764000084828161936157fe5b04145b6193d6576040517f08c379a00000000000000000000000000000000000000000000000000000000081526004018080602001828103825260108152602001807f4552525f4449565f494e5445524e414c0000000000000000000000000000000081525060200191505060405180910390fd5b6000600284816193e257fe5b04820190508181101561945d576040517f08c379a00000000000000000000000000000000000000000000000000000000081526004018080602001828103825260108152602001807f4552525f4449565f494e5445524e414c0000000000000000000000000000000081525060200191505060405180910390fd5b600084828161946857fe5b04905080935050505092915050565b600085600660006101000a81548173ffffffffffffffffffffffffffffffffffffffff021916908373ffffffffffffffffffffffffffffffffffffffff16021790555084600560026101000a81548173ffffffffffffffffffffffffffffffffffffffff021916908373ffffffffffffffffffffffffffffffffffffffff1602179055508360078190555082600660146101000a81548160ff02191690831515021790555081600860006101000a81548160ff0219169083151502179055506001600c60006101000a81548160ff021916908315150217905550600c60009054906101000a900460ff16905095945050505050565b600060018310156195e5576040517f08c379a00000000000000000000000000000000000000000000000000000000081526004018080602001828103825260158152602001807f4552525f42504f575f424153455f544f4f5f4c4f57000000000000000000000081525060200191505060405180910390fd5b6001670de0b6b3a764000060020203831115619669576040517f08c379a00000000000000000000000000000000000000000000000000000000081526004018080602001828103825260168152602001807f4552525f42504f575f424153455f544f4f5f484947480000000000000000000081525060200191505060405180910390fd5b6000619674836199ef565b905060006196828483618c54565b905060006196988661969385619a0b565b619a26565b905060008214156196ae578093505050506196e4565b60006196d187846402540be400670de0b6b3a7640000816196cb57fe5b04619ab0565b90506196dd8282618b12565b9450505050505b92915050565b6000808284106197025782840360009150915061970c565b8383036001915091505b9250929050565b61971e823083618e69565b5050565b806000803073ffffffffffffffffffffffffffffffffffffffff1673ffffffffffffffffffffffffffffffffffffffff1681526020019081526020016000205410156197d6576040517f08c379a00000000000000000000000000000000000000000000000000000000081526004018080602001828103825260148152602001807f4552525f494e53554646494349454e545f42414c00000000000000000000000081525060200191505060405180910390fd5b61981e6000803073ffffffffffffffffffffffffffffffffffffffff1673ffffffffffffffffffffffffffffffffffffffff1681526020019081526020016000205482618c54565b6000803073ffffffffffffffffffffffffffffffffffffffff1673ffffffffffffffffffffffffffffffffffffffff1681526020019081526020016000208190555061986c60025482618c54565b600281905550600073ffffffffffffffffffffffffffffffffffffffff163073ffffffffffffffffffffffffffffffffffffffff167fddf252ad1be2c89b69c2b068fc378daa952ba7f163c4a11628f55a4df523b3ef836040518082815260200191505060405180910390a350565b6198e6308383618e69565b5050565b6199326000803073ffffffffffffffffffffffffffffffffffffffff1673ffffffffffffffffffffffffffffffffffffffff168152602001908152602001600020548261909b565b6000803073ffffffffffffffffffffffffffffffffffffffff1673ffffffffffffffffffffffffffffffffffffffff168152602001908152602001600020819055506199806002548261909b565b6002819055503073ffffffffffffffffffffffffffffffffffffffff16600073ffffffffffffffffffffffffffffffffffffffff167fddf252ad1be2c89b69c2b068fc378daa952ba7f163c4a11628f55a4df523b3ef836040518082815260200191505060405180910390a350565b6000670de0b6b3a7640000619a0383619a0b565b029050919050565b6000670de0b6b3a76400008281619a1e57fe5b049050919050565b60008083905060008060028581619a3957fe5b061415619a4e57670de0b6b3a7640000619a50565b815b905060028481619a5c57fe5b0493505b60008414619aa557619a728283618b12565b9150600060028581619a8057fe5b0614619a9357619a908183618b12565b90505b60028481619a9d57fe5b049350619a60565b809250505092915050565b600080839050600080619acb87670de0b6b3a76400006196ea565b915091506000670de0b6b3a76400009050600081905060008090506000600190505b888410619ba1576000670de0b6b3a764000082029050600080619b218a619b1c85670de0b6b3a7640000618c54565b6196ea565b91509150619b3887619b33848c618b12565b618b12565b9650619b4487846192be565b96506000871415619b5757505050619ba1565b8715619b6257841594505b8015619b6d57841594505b8415619b8457619b7d8688618c54565b9550619b91565b619b8e868861909b565b95505b5050508080600101915050619aed565b50819650505050505050939250505056fea165627a7a723058208e5fc63b5ae038413af53bb4c6d79268d7daa2dc8cd0e25c64d038ae87fb2da00029",
  "source": "pragma solidity ^0.5.7;\n// Copyright BigchainDB GmbH and Ocean Protocol contributors\n// SPDX-License-Identifier: (Apache-2.0 AND CC-BY-4.0)\n// Code is Apache-2.0 and docs are CC-BY-4.0\n\nimport './BToken.sol';\nimport './BMath.sol';\n\n/**\n* @title SPool\n*  \n* @dev Used by the (Ocean version) SFactory contract as a bytecode reference to \n*      deploy new SPools.\n*\n* This contract is is nearly identical to the BPool.sol contract at [1]\n*  The only difference is the \"Proxy contract functionality\" section \n*  given below. We'd inherit from BPool if we could, for simplicity.\n*  But we can't, because the proxy section needs to access private\n*  variables declared in BPool, and Solidity disallows this. Therefore\n*  the best we can do for now is clearly demarcate the proxy section. \n*\n*  [1] https://github.com/balancer-labs/balancer-core/contracts/.\n*/\ncontract SPool is BBronze, BToken, BMath {\n\n    struct Record {\n        bool bound;   // is token bound to pool\n        uint index;   // private\n        uint denorm;  // denormalized weight\n        uint balance;\n    }\n\n    event LOG_SWAP(\n        address indexed caller,\n        address indexed tokenIn,\n        address indexed tokenOut,\n        uint256         tokenAmountIn,\n        uint256         tokenAmountOut\n    );\n\n    event LOG_JOIN(\n        address indexed caller,\n        address indexed tokenIn,\n        uint256         tokenAmountIn\n    );\n\n    event LOG_EXIT(\n        address indexed caller,\n        address indexed tokenOut,\n        uint256         tokenAmountOut\n    );\n\n    event LOG_CALL(\n        bytes4  indexed sig,\n        address indexed caller,\n        bytes           data\n    ) anonymous;\n\n    modifier _logs_() {\n        emit LOG_CALL(msg.sig, msg.sender, msg.data);\n        _;\n    }\n\n    modifier _lock_() {\n        require(\n            !_mutex, \n            'ERR_REENTRY'\n        );\n        _mutex = true;\n        _;\n        _mutex = false;\n    }\n\n    modifier _viewlock_() {\n        require(!_mutex, 'ERR_REENTRY');\n        _;\n    }\n    \n    bool private _mutex;\n\n    address private _factory;    // SFactory address to push token exitFee to\n    address private _controller; // has CONTROL role\n    bool private _publicSwap; // true if PUBLIC can call SWAP functions\n\n    // `setSwapFee` and `finalize` require CONTROL\n    // `finalize` sets `PUBLIC can SWAP`, `PUBLIC can JOIN`\n    uint private _swapFee;\n    bool private _finalized;\n\n    address[] private _tokens;\n    mapping(address=>Record) private  _records;\n    uint private _totalWeight;\n\n    //-----------------------------------------------------------------------\n    //Proxy contract functionality: begin\n    bool private initialized = false; \n    modifier onlyNotInitialized() {\n        require(\n            !initialized, \n            'ERR_ALREADY_INITIALIZED'\n        );\n        _;\n    }\n    function isInitialized() public view returns(bool) {\n        return initialized;\n    }\n    \n    // Called prior to contract deployment\n    constructor() public {\n        _initialize(msg.sender, msg.sender, MIN_FEE, false, false);\n    }\n    \n    // Called prior to contract initialization (e.g creating new SPool instance)\n    // Calls private _initialize function. Only if contract is not initialized.\n    function initialize(\n        address controller, \n        address factory, \n        uint swapFee,\n        bool publicSwap,\n        bool finalized\n    )\n        public\n        onlyNotInitialized\n        returns(bool)\n    {\n        return _initialize(controller, factory, swapFee, publicSwap, finalized);\n    }\n\t\n    // Private function called on contract initialization.\n    function _initialize(\n        address controller, \n        address factory, \n        uint swapFee,\n        bool publicSwap, \n        bool finalized\n    )\n        private\n        returns(bool)\n    {\n        _controller = controller;\n        _factory = factory;\n        _swapFee = swapFee;\n        _publicSwap = publicSwap;\n        _finalized = finalized;\n\t\n        initialized = true;\n        return initialized;\n    }\n    \n    //Proxy contract functionality: end\n    //-----------------------------------------------------------------------\n\n    function isPublicSwap()\n        external view\n        returns (bool)\n    {\n        return _publicSwap;\n    }\n\n    function isFinalized()\n        external view\n        returns (bool)\n    {\n        return _finalized;\n    }\n\n    function isBound(address t)\n        external view\n        returns (bool)\n    {\n        return _records[t].bound;\n    }\n\n    function getNumTokens()\n        external view\n        returns (uint) \n    {\n        return _tokens.length;\n    }\n\n    function getCurrentTokens()\n        external view _viewlock_\n        returns (address[] memory tokens)\n    {\n        return _tokens;\n    }\n\n    function getFinalTokens()\n        external view\n        _viewlock_\n        returns (address[] memory tokens)\n    {\n        require(_finalized, 'ERR_NOT_FINALIZED');\n        return _tokens;\n    }\n\n    function getDenormalizedWeight(address token)\n        external view\n        _viewlock_\n        returns (uint)\n    {\n\n        require(_records[token].bound, 'ERR_NOT_BOUND');\n        return _records[token].denorm;\n    }\n\n    function getTotalDenormalizedWeight()\n        external view\n        _viewlock_\n        returns (uint)\n    {\n        return _totalWeight;\n    }\n\n    function getNormalizedWeight(address token)\n        external view\n        _viewlock_\n        returns (uint)\n    {\n\n        require(_records[token].bound, 'ERR_NOT_BOUND');\n        uint denorm = _records[token].denorm;\n        return bdiv(denorm, _totalWeight);\n    }\n\n    function getBalance(address token)\n        external view\n        _viewlock_\n        returns (uint)\n    {\n\n        require(_records[token].bound, 'ERR_NOT_BOUND');\n        return _records[token].balance;\n    }\n\n    function getSwapFee()\n        external view\n        _viewlock_\n        returns (uint)\n    {\n        return _swapFee;\n    }\n\n    function getController()\n        external view\n        _viewlock_\n        returns (address)\n    {\n        return _controller;\n    }\n\n    function setSwapFee(uint swapFee)\n        external\n        _logs_\n        _lock_\n    { \n        require(!_finalized, 'ERR_IS_FINALIZED');\n        require(msg.sender == _controller, 'ERR_NOT_CONTROLLER');\n        require(swapFee >= MIN_FEE, 'ERR_MIN_FEE');\n        require(swapFee <= MAX_FEE, 'ERR_MAX_FEE');\n        _swapFee = swapFee;\n    }\n\n    function setController(address manager)\n        external\n        _logs_\n        _lock_\n    {\n        require(msg.sender == _controller, 'ERR_NOT_CONTROLLER');\n        _controller = manager;\n    }\n\t\n    function setPublicSwap(bool public_)\n        external\n        _logs_\n        _lock_\n    {\n        require(!_finalized, 'ERR_IS_FINALIZED');\n        require(msg.sender == _controller, 'ERR_NOT_CONTROLLER');\n        _publicSwap = public_;\n    }\n\n    function finalize()\n        external\n        _logs_\n        _lock_\n    {\n        require(msg.sender == _controller, 'ERR_NOT_CONTROLLER');\n        require(!_finalized, 'ERR_IS_FINALIZED');\n        require(_tokens.length >= MIN_BOUND_TOKENS, 'ERR_MIN_TOKENS');\n\n        _finalized = true;\n        _publicSwap = true;\n\n        _mintPoolShare(INIT_POOL_SUPPLY);\n        _pushPoolShare(msg.sender, INIT_POOL_SUPPLY);\n    }\n\n\n    function bind(address token, uint balance, uint denorm)\n        external\n        _logs_\n        // _lock_  Bind does not lock because it jumps to `rebind`, which does\n    {\n        require(msg.sender == _controller, 'ERR_NOT_CONTROLLER');\n        require(!_records[token].bound, 'ERR_IS_BOUND');\n        require(!_finalized, 'ERR_IS_FINALIZED');\n\n        require(_tokens.length < MAX_BOUND_TOKENS, 'ERR_MAX_TOKENS');\n\n        _records[token] = Record({\n            bound: true,\n            index: _tokens.length,\n            denorm: 0,\n            // balance and denorm will be validated\n            balance: 0   // and set by `rebind`\n        });\n        _tokens.push(token);\n        rebind(token, balance, denorm);\n    }\n\n    function rebind(address token, uint balance, uint denorm)\n        public\n        _logs_\n        _lock_\n    {\n\n        require(msg.sender == _controller, 'ERR_NOT_CONTROLLER');\n        require(_records[token].bound, 'ERR_NOT_BOUND');\n        require(!_finalized, 'ERR_IS_FINALIZED');\n\n        require(denorm >= MIN_WEIGHT, 'ERR_MIN_WEIGHT');\n        require(denorm <= MAX_WEIGHT, 'ERR_MAX_WEIGHT');\n        require(balance >= MIN_BALANCE, 'ERR_MIN_BALANCE');\n\n        // Adjust the denorm and totalWeight\n        uint oldWeight = _records[token].denorm;\n        if (denorm > oldWeight) {\n            _totalWeight = badd(_totalWeight, bsub(denorm, oldWeight));\n            require(_totalWeight <= MAX_TOTAL_WEIGHT, 'ERR_MAX_TOTAL_WEIGHT');\n        } else if (denorm < oldWeight) {\n            _totalWeight = bsub(_totalWeight, bsub(oldWeight, denorm));\n        }        \n        _records[token].denorm = denorm;\n\n        // Adjust the balance record and actual token balance\n        uint oldBalance = _records[token].balance;\n        _records[token].balance = balance;\n        if (balance > oldBalance) {\n            _pullUnderlying(token, msg.sender, bsub(balance, oldBalance));\n        } else if (balance < oldBalance) {\n            // In this case liquidity is being withdrawn, so charge EXIT_FEE\n            uint tokenBalanceWithdrawn = bsub(oldBalance, balance);\n            uint tokenExitFee = bmul(tokenBalanceWithdrawn, EXIT_FEE);\n            _pushUnderlying(token, msg.sender, bsub(tokenBalanceWithdrawn, tokenExitFee));\n            _pushUnderlying(token, _factory, tokenExitFee);\n        }\n    }\n\n    function unbind(address token)\n        external\n        _logs_\n        _lock_\n    {\n\n        require(msg.sender == _controller, 'ERR_NOT_CONTROLLER');\n        require(_records[token].bound, 'ERR_NOT_BOUND');\n        require(!_finalized, 'ERR_IS_FINALIZED');\n\n        uint tokenBalance = _records[token].balance;\n        uint tokenExitFee = bmul(tokenBalance, EXIT_FEE);\n\n        _totalWeight = bsub(_totalWeight, _records[token].denorm);\n\n        // Swap the token-to-unbind with the last token,\n        // then delete the last token\n        uint index = _records[token].index;\n        uint last = _tokens.length - 1;\n        _tokens[index] = _tokens[last];\n        _records[_tokens[index]].index = index;\n        _tokens.pop();\n        _records[token] = Record({\n            bound: false,\n            index: 0,\n            denorm: 0,\n            balance: 0\n        });\n\n        _pushUnderlying(token, msg.sender, bsub(tokenBalance, tokenExitFee));\n        _pushUnderlying(token, _factory, tokenExitFee);\n    }\n\n    // Absorb any tokens that have been sent to this contract into the pool\n    function gulp(address token)\n        external\n        _logs_\n        _lock_\n    {\n        require(_records[token].bound, 'ERR_NOT_BOUND');\n        _records[token].balance = IERC20(token).balanceOf(address(this));\n    }\n\n    function getSpotPrice(address tokenIn, address tokenOut)\n        external view\n        _viewlock_\n        returns (uint spotPrice)\n    {\n        require(_records[tokenIn].bound, 'ERR_NOT_BOUND');\n        require(_records[tokenOut].bound, 'ERR_NOT_BOUND');\n        Record storage inRecord = _records[tokenIn];\n        Record storage outRecord = _records[tokenOut];\n        return calcSpotPrice(\n            inRecord.balance, \n            inRecord.denorm, \n            outRecord.balance, \n            outRecord.denorm, \n            _swapFee\n        );\n    }\n\n    function getSpotPriceSansFee(address tokenIn, address tokenOut)\n        external view\n        _viewlock_\n        returns (uint spotPrice)\n    {\n        require(_records[tokenIn].bound, 'ERR_NOT_BOUND');\n        require(_records[tokenOut].bound, 'ERR_NOT_BOUND');\n        Record storage inRecord = _records[tokenIn];\n        Record storage outRecord = _records[tokenOut];\n        return calcSpotPrice(\n            inRecord.balance, \n            inRecord.denorm, \n            outRecord.balance, \n            outRecord.denorm, \n            0\n        );\n    }\n\n    function joinPool(uint poolAmountOut, uint[] calldata maxAmountsIn)\n        external\n        _logs_\n        _lock_\n    {\n        require(_finalized, 'ERR_NOT_FINALIZED');\n\n        uint poolTotal = totalSupply();\n        uint ratio = bdiv(poolAmountOut, poolTotal);\n        require(ratio != 0, 'ERR_MATH_APPROX');\n\n        for (uint i = 0; i < _tokens.length; i++) {\n            address t = _tokens[i];\n            uint bal = _records[t].balance;\n            uint tokenAmountIn = bmul(ratio, bal);\n            require(tokenAmountIn != 0, 'ERR_MATH_APPROX');\n            require(tokenAmountIn <= maxAmountsIn[i], 'ERR_LIMIT_IN');\n            _records[t].balance = badd(_records[t].balance, tokenAmountIn);\n            emit LOG_JOIN(msg.sender, t, tokenAmountIn);\n            _pullUnderlying(t, msg.sender, tokenAmountIn);\n        }\n        _mintPoolShare(poolAmountOut);\n        _pushPoolShare(msg.sender, poolAmountOut);\n    }\n\n    function exitPool(uint poolAmountIn, uint[] calldata minAmountsOut)\n        external\n        _logs_\n        _lock_\n    {\n        require(_finalized, 'ERR_NOT_FINALIZED');\n\n        uint poolTotal = totalSupply();\n        uint exitFee = bmul(poolAmountIn, EXIT_FEE);\n        uint pAiAfterExitFee = bsub(poolAmountIn, exitFee);\n        uint ratio = bdiv(pAiAfterExitFee, poolTotal);\n        require(ratio != 0, 'ERR_MATH_APPROX');\n\n        _pullPoolShare(msg.sender, poolAmountIn);\n        _pushPoolShare(_factory, exitFee);\n        _burnPoolShare(pAiAfterExitFee);\n\n        for (uint i = 0; i < _tokens.length; i++) {\n            address t = _tokens[i];\n            uint bal = _records[t].balance;\n            uint tokenAmountOut = bmul(ratio, bal);\n            require(tokenAmountOut != 0, 'ERR_MATH_APPROX');\n            require(tokenAmountOut >= minAmountsOut[i], 'ERR_LIMIT_OUT');\n            _records[t].balance = bsub(_records[t].balance, tokenAmountOut);\n            emit LOG_EXIT(msg.sender, t, tokenAmountOut);\n            _pushUnderlying(t, msg.sender, tokenAmountOut);\n        }\n\n    }\n\n\n    function swapExactAmountIn(\n        address tokenIn,\n        uint tokenAmountIn,\n        address tokenOut,\n        uint minAmountOut,\n        uint maxPrice\n    )\n        external\n        _logs_\n        _lock_\n        returns (uint tokenAmountOut, uint spotPriceAfter)\n    {\n\n        require(_records[tokenIn].bound, 'ERR_NOT_BOUND');\n        require(_records[tokenOut].bound, 'ERR_NOT_BOUND');\n        require(_publicSwap, 'ERR_SWAP_NOT_PUBLIC');\n\n        Record storage inRecord = _records[address(tokenIn)];\n        Record storage outRecord = _records[address(tokenOut)];\n\n        require(\n            tokenAmountIn <= bmul(inRecord.balance, MAX_IN_RATIO), \n            'ERR_MAX_IN_RATIO'\n        );\n\n        uint spotPriceBefore = calcSpotPrice(\n            inRecord.balance,\n            inRecord.denorm,\n            outRecord.balance,\n            outRecord.denorm,\n            _swapFee\n        );\n        require(spotPriceBefore <= maxPrice, 'ERR_BAD_LIMIT_PRICE');\n\n        tokenAmountOut = calcOutGivenIn(\n            inRecord.balance,\n            inRecord.denorm,\n            outRecord.balance,\n            outRecord.denorm,\n            tokenAmountIn,\n            _swapFee\n        );\n        require(tokenAmountOut >= minAmountOut, 'ERR_LIMIT_OUT');\n\n        inRecord.balance = badd(inRecord.balance, tokenAmountIn);\n        outRecord.balance = bsub(outRecord.balance, tokenAmountOut);\n\n        spotPriceAfter = calcSpotPrice(\n            inRecord.balance,\n            inRecord.denorm,\n            outRecord.balance,\n            outRecord.denorm,\n            _swapFee\n        );\n        require(spotPriceAfter >= spotPriceBefore, 'ERR_MATH_APPROX');     \n        require(spotPriceAfter <= maxPrice, 'ERR_LIMIT_PRICE');\n        require(\n            spotPriceBefore <= bdiv(tokenAmountIn, tokenAmountOut), \n            'ERR_MATH_APPROX'\n        );\n\n        emit LOG_SWAP(\n            msg.sender, \n            tokenIn, \n            tokenOut, \n            tokenAmountIn, \n            tokenAmountOut\n        );\n\n        _pullUnderlying(tokenIn, msg.sender, tokenAmountIn);\n        _pushUnderlying(tokenOut, msg.sender, tokenAmountOut);\n\n        return (tokenAmountOut, spotPriceAfter);\n    }\n\n    function swapExactAmountOut(\n        address tokenIn,\n        uint maxAmountIn,\n        address tokenOut,\n        uint tokenAmountOut,\n        uint maxPrice\n    )\n        external\n        _logs_\n        _lock_ \n        returns (uint tokenAmountIn, uint spotPriceAfter)\n    {\n        require(_records[tokenIn].bound, 'ERR_NOT_BOUND');\n        require(_records[tokenOut].bound, 'ERR_NOT_BOUND');\n        require(_publicSwap, 'ERR_SWAP_NOT_PUBLIC');\n\n        Record storage inRecord = _records[address(tokenIn)];\n        Record storage outRecord = _records[address(tokenOut)];\n\n        require(\n            tokenAmountOut <= bmul(outRecord.balance, MAX_OUT_RATIO), \n            'ERR_MAX_OUT_RATIO'\n        );\n\n        uint spotPriceBefore = calcSpotPrice(\n            inRecord.balance,\n            inRecord.denorm,\n            outRecord.balance,\n            outRecord.denorm,\n            _swapFee\n        );\n        \n        require(spotPriceBefore <= maxPrice, 'ERR_BAD_LIMIT_PRICE');\n\n        tokenAmountIn = calcInGivenOut(\n            inRecord.balance,\n            inRecord.denorm,\n            outRecord.balance,\n            outRecord.denorm,\n            tokenAmountOut,\n            _swapFee\n        );\n        require(tokenAmountIn <= maxAmountIn, 'ERR_LIMIT_IN');\n\n        inRecord.balance = badd(inRecord.balance, tokenAmountIn);\n        outRecord.balance = bsub(outRecord.balance, tokenAmountOut);\n\n        spotPriceAfter = calcSpotPrice(\n            inRecord.balance,\n            inRecord.denorm,\n            outRecord.balance,\n            outRecord.denorm,\n            _swapFee\n        );\n        require(spotPriceAfter >= spotPriceBefore, 'ERR_MATH_APPROX');\n        require(spotPriceAfter <= maxPrice, 'ERR_LIMIT_PRICE');\n        require(\n            spotPriceBefore <= bdiv(tokenAmountIn, tokenAmountOut), \n            'ERR_MATH_APPROX'\n        );\n\n        emit LOG_SWAP(\n            msg.sender, \n            tokenIn, \n            tokenOut, \n            tokenAmountIn, \n            tokenAmountOut\n        );\n\n        _pullUnderlying(tokenIn, msg.sender, tokenAmountIn);\n        _pushUnderlying(tokenOut, msg.sender, tokenAmountOut);\n\n        return (tokenAmountIn, spotPriceAfter);\n    }\n\n\n    function joinswapExternAmountIn(\n        address tokenIn, \n        uint tokenAmountIn, \n        uint minPoolAmountOut\n    )\n        external\n        _logs_\n        _lock_\n        returns (uint poolAmountOut)\n\n    {        \n        require(_finalized, 'ERR_NOT_FINALIZED');\n        require(_records[tokenIn].bound, 'ERR_NOT_BOUND');\n        require(\n            tokenAmountIn <= bmul(_records[tokenIn].balance, MAX_IN_RATIO), \n            'ERR_MAX_IN_RATIO'\n        );\n\n        Record storage inRecord = _records[tokenIn];\n\n        poolAmountOut = calcPoolOutGivenSingleIn(\n            inRecord.balance,\n            inRecord.denorm,\n            _totalSupply,\n            _totalWeight,\n            tokenAmountIn,\n            _swapFee\n        );\n\n        require(poolAmountOut >= minPoolAmountOut, 'ERR_LIMIT_OUT');\n\n        inRecord.balance = badd(inRecord.balance, tokenAmountIn);\n\n        emit LOG_JOIN(msg.sender, tokenIn, tokenAmountIn);\n\n        _mintPoolShare(poolAmountOut);\n        _pushPoolShare(msg.sender, poolAmountOut);\n        _pullUnderlying(tokenIn, msg.sender, tokenAmountIn);\n\n        return poolAmountOut;\n    }\n\n    function joinswapPoolAmountOut(\n        address tokenIn, \n        uint poolAmountOut, \n        uint maxAmountIn\n    )\n        external\n        _logs_\n        _lock_\n        returns (uint tokenAmountIn)\n    {\n        require(_finalized, 'ERR_NOT_FINALIZED');\n        require(_records[tokenIn].bound, 'ERR_NOT_BOUND');\n\n        Record storage inRecord = _records[tokenIn];\n\n        tokenAmountIn = calcSingleInGivenPoolOut(\n            inRecord.balance,\n            inRecord.denorm,\n            _totalSupply,\n            _totalWeight,\n            poolAmountOut,\n            _swapFee\n        );\n\n        require(tokenAmountIn != 0, 'ERR_MATH_APPROX');\n        require(tokenAmountIn <= maxAmountIn, 'ERR_LIMIT_IN');\n        \n        require(\n            tokenAmountIn <= bmul(_records[tokenIn].balance, MAX_IN_RATIO), \n            'ERR_MAX_IN_RATIO'\n        );\n\n        inRecord.balance = badd(inRecord.balance, tokenAmountIn);\n\n        emit LOG_JOIN(msg.sender, tokenIn, tokenAmountIn);\n\n        _mintPoolShare(poolAmountOut);\n        _pushPoolShare(msg.sender, poolAmountOut);\n        _pullUnderlying(tokenIn, msg.sender, tokenAmountIn);\n\n        return tokenAmountIn;\n    }\n\n    function exitswapPoolAmountIn(\n        address tokenOut, \n        uint poolAmountIn, \n        uint minAmountOut\n    )\n        external\n        _logs_\n        _lock_\n        returns (uint tokenAmountOut)\n    {\n        require(_finalized, 'ERR_NOT_FINALIZED');\n        require(_records[tokenOut].bound, 'ERR_NOT_BOUND');\n\n        Record storage outRecord = _records[tokenOut];\n\n        tokenAmountOut = calcSingleOutGivenPoolIn(\n            outRecord.balance,\n            outRecord.denorm,\n            _totalSupply,\n            _totalWeight,\n            poolAmountIn,\n            _swapFee\n        );\n\n        require(tokenAmountOut >= minAmountOut, 'ERR_LIMIT_OUT');\n        \n        require(\n            tokenAmountOut <= bmul(_records[tokenOut].balance, MAX_OUT_RATIO), \n            'ERR_MAX_OUT_RATIO'\n        );\n\n        outRecord.balance = bsub(outRecord.balance, tokenAmountOut);\n\n        uint exitFee = bmul(poolAmountIn, EXIT_FEE);\n\n        emit LOG_EXIT(msg.sender, tokenOut, tokenAmountOut);\n\n        _pullPoolShare(msg.sender, poolAmountIn);\n        _burnPoolShare(bsub(poolAmountIn, exitFee));\n        _pushPoolShare(_factory, exitFee);\n        _pushUnderlying(tokenOut, msg.sender, tokenAmountOut);\n\n        return tokenAmountOut;\n    }\n\n    function exitswapExternAmountOut(\n        address tokenOut, \n        uint tokenAmountOut, \n        uint maxPoolAmountIn\n    )\n        external\n        _logs_\n        _lock_\n        returns (uint poolAmountIn)\n    {\n        require(_finalized, 'ERR_NOT_FINALIZED');\n        require(_records[tokenOut].bound, 'ERR_NOT_BOUND');\n        require(\n            tokenAmountOut <= bmul(_records[tokenOut].balance, MAX_OUT_RATIO), \n            'ERR_MAX_OUT_RATIO'\n        );\n\n        Record storage outRecord = _records[tokenOut];\n\n        poolAmountIn = calcPoolInGivenSingleOut(\n            outRecord.balance,\n            outRecord.denorm,\n            _totalSupply,\n            _totalWeight,\n            tokenAmountOut,\n            _swapFee\n        );\n\n        require(poolAmountIn != 0, 'ERR_MATH_APPROX');\n        require(poolAmountIn <= maxPoolAmountIn, 'ERR_LIMIT_IN');\n\n        outRecord.balance = bsub(outRecord.balance, tokenAmountOut);\n\n        uint exitFee = bmul(poolAmountIn, EXIT_FEE);\n\n        emit LOG_EXIT(msg.sender, tokenOut, tokenAmountOut);\n\n        _pullPoolShare(msg.sender, poolAmountIn);\n        _burnPoolShare(bsub(poolAmountIn, exitFee));\n        _pushPoolShare(_factory, exitFee);\n        _pushUnderlying(tokenOut, msg.sender, tokenAmountOut);        \n\n        return poolAmountIn;\n    }\n\n\n    // ==\n    // 'Underlying' token-manipulation functions make external calls but are NOT locked\n    // You must `_lock_` or otherwise ensure reentry-safety\n\n    function _pullUnderlying(address erc20, address from, uint amount)\n        internal\n    {\n        bool xfer = IERC20(erc20).transferFrom(from, address(this), amount);\n        require(xfer, 'ERR_ERC20_FALSE');\n    }\n\n    function _pushUnderlying(address erc20, address to, uint amount)\n        internal\n    {\n        bool xfer = IERC20(erc20).transfer(to, amount);\n        require(xfer, 'ERR_ERC20_FALSE');\n    }\n\n    function _pullPoolShare(address from, uint amount)\n        internal\n    {\n        _pull(from, amount);\n    }\n\n    function _pushPoolShare(address to, uint amount)\n        internal\n    {\n        _push(to, amount);\n    }\n\n    function _mintPoolShare(uint amount)\n        internal\n    {\n        _mint(amount);\n    }\n\n    function _burnPoolShare(uint amount)\n        internal\n    {\n        _burn(amount);\n    }\n\n}\n",
  "sourcePath": "/Users/ahmedali/Desktop/work/Ocean/ocean-contracts/contracts/balancer/SPool.sol",
  "compiler": {
    "name": "solc",
    "version": "0.5.7+commit.6da8b019.Emscripten.clang"
  },
  "schemaVersion": "3.2.0",
  "updatedAt": "2020-07-01T18:39:45.209Z",
  "devdoc": {
    "details": "Used by the (Ocean version) SFactory contract as a bytecode reference to      deploy new SPools. * This contract is is nearly identical to the BPool.sol contract at [1] The only difference is the \"Proxy contract functionality\" section  given below. We'd inherit from BPool if we could, for simplicity. But we can't, because the proxy section needs to access private variables declared in BPool, and Solidity disallows this. Therefore the best we can do for now is clearly demarcate the proxy section.  *  [1] https://github.com/balancer-labs/balancer-core/contracts/.",
    "methods": {},
    "title": "SPool "
  },
  "userdoc": {
    "methods": {
      "calcInGivenOut(uint256,uint256,uint256,uint256,uint256,uint256)": {
        "notice": "******************************************************************************************** // calcInGivenOut                                                                            // // aI = tokenAmountIn                                                                        // // bO = tokenBalanceOut               /  /     bO      \\    (wO / wI)      \\                 // // bI = tokenBalanceIn          bI * |  | ------------  | ^            - 1  |                // // aO = tokenAmountOut    aI =        \\  \\ ( bO - aO ) /                   /                 // // wI = tokenWeightIn           --------------------------------------------                 // // wO = tokenWeightOut                          ( 1 - sF )                                   // // sF = swapFee                                                                              //*********************************************************************************************"
      },
      "calcOutGivenIn(uint256,uint256,uint256,uint256,uint256,uint256)": {
        "notice": "******************************************************************************************** // calcOutGivenIn                                                                            // // aO = tokenAmountOut                                                                       // // bO = tokenBalanceOut                                                                      // // bI = tokenBalanceIn              /      /            bI             \\    (wI / wO) \\      // // aI = tokenAmountIn    aO = bO * |  1 - | --------------------------  | ^            |     // // wI = tokenWeightIn               \\      \\ ( bI + ( aI * ( 1 - sF )) /              /      // // wO = tokenWeightOut                                                                       // // sF = swapFee                                                                              //*********************************************************************************************"
      },
      "calcPoolInGivenSingleOut(uint256,uint256,uint256,uint256,uint256,uint256)": {
        "notice": "******************************************************************************************** // calcPoolInGivenSingleOut                                                                  // // pAi = poolAmountIn               // /               tAo             \\\\     / wO \\     \\   // // bO = tokenBalanceOut            // | bO - -------------------------- |\\   | ---- |     \\  // // tAo = tokenAmountOut      pS - ||   \\     1 - ((1 - (tO / tW)) * sF)/  | ^ \\ tW /  * pS | // // ps = poolSupply                 \\\\ -----------------------------------/                /  // // wO = tokenWeightOut  pAi =       \\\\               bO                 /                /   // // tW = totalWeight           -------------------------------------------------------------  // // sF = swapFee                                        ( 1 - eF )                            // // eF = exitFee                                                                              //*********************************************************************************************"
      },
      "calcPoolOutGivenSingleIn(uint256,uint256,uint256,uint256,uint256,uint256)": {
        "notice": "******************************************************************************************** // calcPoolOutGivenSingleIn                                                                  // // pAo = poolAmountOut         /                                              \\              // // tAi = tokenAmountIn        ///      /     //    wI \\      \\\\       \\     wI \\             // // wI = tokenWeightIn        //| tAi *| 1 - || 1 - --  | * sF || + tBi \\    --  \\            // // tW = totalWeight     pAo=||  \\      \\     \\\\    tW /      //         | ^ tW   | * pS - pS // // tBi = tokenBalanceIn      \\\\  ------------------------------------- /        /            // // pS = poolSupply            \\\\                    tBi               /        /             // // sF = swapFee                \\                                              /              //*********************************************************************************************"
      },
      "calcSingleInGivenPoolOut(uint256,uint256,uint256,uint256,uint256,uint256)": {
        "notice": "******************************************************************************************** // calcSingleInGivenPoolOut                                                                  // // tAi = tokenAmountIn              //(pS + pAo)\\     /    1    \\\\                           // // pS = poolSupply                 || ---------  | ^ | --------- || * bI - bI                // // pAo = poolAmountOut              \\\\    pS    /     \\(wI / tW)//                           // // bI = balanceIn          tAi =  --------------------------------------------               // // wI = weightIn                              /      wI  \\                                   // // tW = totalWeight                          |  1 - ----  |  * sF                            // // sF = swapFee                               \\      tW  /                                   //*********************************************************************************************"
      },
      "calcSingleOutGivenPoolIn(uint256,uint256,uint256,uint256,uint256,uint256)": {
        "notice": "******************************************************************************************** // calcSingleOutGivenPoolIn                                                                  // // tAo = tokenAmountOut            /      /                                             \\\\   // // bO = tokenBalanceOut           /      // pS - (pAi * (1 - eF)) \\     /    1    \\      \\\\  // // pAi = poolAmountIn            | bO - || ----------------------- | ^ | --------- | * b0 || // // ps = poolSupply                \\      \\\\          pS           /     \\(wO / tW)/      //  // // wI = tokenWeightIn      tAo =   \\      \\                                             //   // // tW = totalWeight                    /     /      wO \\       \\                             // // sF = swapFee                    *  | 1 - |  1 - ---- | * sF  |                            // // eF = exitFee                        \\     \\      tW /       /                             //*********************************************************************************************"
      },
      "calcSpotPrice(uint256,uint256,uint256,uint256,uint256)": {
        "notice": "******************************************************************************************** // calcSpotPrice                                                                             // // sP = spotPrice                                                                            // // bI = tokenBalanceIn                ( bI / wI )         1                                  // // bO = tokenBalanceOut         sP =  -----------  *  ----------                             // // wI = tokenWeightIn                 ( bO / wO )     ( 1 - sF )                             // // wO = tokenWeightOut                                                                       // // sF = swapFee                                                                              //*********************************************************************************************"
      }
    }
  }
}